:020000040800F2
:100000007011002071010008D91000088B0D000844
:1000100000000000000000000000000000000000E0
:10002000000000000000000000000000DD100008DB
:100030000000000000000000DB100008DF100008D6
:100040008301000883010008830100088301000880
:100050008301000883010008830100088301000870
:100060008301000883010008830100088301000860
:100070008301000883010008830100088301000850
:100080008301000883010008830100088301000840
:100090008301000883010008830100088301000830
:1000A0008301000883010008830100088301000820
:1000B00083010008830100088301000800F002F8B2
:1000C00000F046F80CA030C8083824182D18A246B5
:1000D000671EAB4654465D46AC4201D100F038F88D
:1000E0007E460F3E0FCCB6460126334200D0FB1AA7
:1000F000A246AB4633431847641500008415000040
:10010000103A02D378C878C1FAD8520701D330C860
:1001100030C101D504680C60704700000023002442
:1001200000250026103A01D378C1FBD8520700D32E
:1001300030C100D50B6070471FB50098019900F0E1
:100140001EFC00F03FF91FBD10B500F0A7F910BD6F
:1001500000F0D6F91146FFF7EFFF00F00FFE00F0B8
:10016000DFFB03B4FFF7F0FF03BC01F0FEF9000072
:100170000748804707480047FEE7FEE7FEE7FEE73F
:10018000FEE7FEE704480549054A064B70470000B4
:10019000E1100008BD00000870010020701100206F
:1001A00070090020700900200FB4054910B503AA9A
:1001B000029800F0D7F810BC08BC04B01847000043
:1001C0006400002001E004C0091F0429FBD28B0752
:1001D00001D50280801CC90700D002707047002939
:1001E0000BD0C30702D00270401C491E022904D361
:1001F000830702D50280801C891EE3E70022EEE718
:100200000022DFE7002203098B422CD3030A8B4232
:1002100011D300239C464EE003460B433CD40022FE
:1002200043088B4231D303098B421CD3030A8B4210
:1002300001D394463FE0C3098B4201D3CB01C01ADE
:10024000524183098B4201D38B01C01A52414309A9
:100250008B4201D34B01C01A524103098B4201D397
:100260000B01C01A5241C3088B4201D3CB00C01A04
:10027000524183088B4201D38B00C01A524143087C
:100280008B4201D34B00C01A5241411A00D20146A1
:100290005241104670475DE0CA0F00D0494203103A
:1002A00000D34042534000229C4603098B422DD389
:1002B000030A8B4212D3FC22890112BA030A8B4231
:1002C0000CD3890192118B4208D3890192118B4280
:1002D00004D389013AD0921100E08909C3098B4205
:1002E00001D3CB01C01A524183098B4201D38B0148
:1002F000C01A524143098B4201D34B01C01A5241EB
:1003000003098B4201D30B01C01A5241C3088B422F
:1003100001D3CB00C01A524183088B4201D38B001A
:10032000C01A5241D9D243088B4201D34B00C01AA4
:100330005241411A00D20146634652415B101046B9
:1003400001D34042002B00D54942704763465B1001
:1003500000D3404201B50020C046C04602BD7047F0
:1003600070477047084B70B50D467B4400F013F89A
:100370000446284600F022F8002802D00020C0439E
:1003800070BD204670BD00005512000001694A1C76
:1003900002610878704700B58FB002910021059185
:1003A000054901937944039111460490684600F091
:1003B000ECF80FB000BD0000E5FFFFFFC068802132
:1003C0000840704710B543485421FFF719FF4248D1
:1003D0005421FFF715FF41485421FFF711FF404812
:1003E0003C493D4B404A01603E4803603B48106039
:1003F0005A1C0A65411C1965012101653C48354AB2
:100400003AA1784400F0F2F9002804D13848784441
:100410000C3800F08DFA38482F4A36A1784400F0A5
:10042000E5F9002804D1344878440C3800F080FA0B
:1004300032482A4A2FA1784400F0D8F9002804D184
:100440002E4878440C3800F073FA40232148DC0031
:100450000021224600F0A4F9002804D02448784462
:100460005C3800F065FA1C4822464023002100F069
:1004700097F9002804D0204878445C3800F058FAF6
:10048000164822461023002100F08AF9002804D0E3
:100490001A4878445C3800F04BFA10BD0F4870B52C
:1004A000006D44080B48640000F014FA0A4800F09C
:1004B00011FA0A4800F00EFA09E0206D45082046BE
:1004C0006D0000F007FA204600F039F82C46002CA9
:1004D000F3D170BD1000002064000020B80000209F
:1004E00004000020080000200C0000207200000022
:1004F0002A1200007700000016120000031200000C
:10050000754600F01BFAAE46050069465346C00822
:10051000C000854618B020B5FFF734FE60BC002748
:100520004908B6460026C0C5C0C5C0C5C0C5C0C5BF
:10053000C0C5C0C5C0C5403D49008D46704770B5B7
:100540000446051F00F0FEF90068002C1AD044682C
:1005500001E020466468002C01D0AC42F9D3016868
:100560000A18AA4204D12A6805468918016000E0E9
:10057000456028684119A14205D161686960216818
:100580004018286070BD6C6070BDF8B50646002448
:100590004768806800903046F56803E00099B847E6
:1005A000641C3046A8470028F8D12046F8BD00005A
:1005B000F8B505460C46C8680521C90488430121E1
:1005C00089050843E060800602D5204600F006FB5E
:1005D0007149E0680140022903D0204600F0A8FAE2
:1005E000BCE00521012249030140D20391420FD111
:1005F000C00306D56168E06A884200D8084660609A
:1006000006E02069E0626060606900F0B0FFA06110
:10061000A1680022EEB200290EDAE06883050BD44F
:10062000C943A1600921226049030843E060606872
:10063000411C61600670ACE0E06801214903084399
:10064000E060002020602069002831D1606900F05E
:1006500091FF012527462437ED02002816D0A089F6
:100660008005800F08D0E06900F0B6F9002820610D
:1006700002D0E068284318E001202761E061E068CB
:10068000032109028843012189020DE0E06900F09D
:10069000A3F900282061EFD0E0682843E0608105DD
:1006A000890F03D1FF2101310843E06020696060B8
:1006B000E2683A4F2569D0051FD56168E06A884233
:1006C00000D80846411B05D02246284600F03AFAD9
:1006D000002843D1E068010204D5E562002065608E
:1006E000A06053E0691CE1626160E169491E384322
:1006F000A160E06030462E70F8BD100201D53A408E
:1007000009E06068411C61600670E06838430A2EA9
:10071000E06006D00022E16A6068814203D90B469E
:1007200002E00122F7E70346A7895B1B7F0504D49B
:10073000E7699F4201DD002A1ED0814200D80146B0
:100740000F1A0020E5626560002BA06009DD2246DB
:100750001946284600F0F6F9002802D00020C043D0
:10076000F8BD002F08D0A069E5626560C01BA061DC
:10077000E06810210843E060E068000209D5616884
:10078000A069E562491B40186560A0610120C04373
:10079000F8BD3046F8BD00008210000000000100E6
:1007A00070B5C468A50713D0650211D4D51FF93DF3
:1007B0000AD0FF3D6D1E07D0FF3DFF3D022D07D142
:1007C00001462431012305E0074E5D1EB54201D3E9
:1007D000012070BD0161C36141600F2109028C439A
:1007E0001443C460002070BDFFFFFF00F7B516463C
:1007F0000C46104600F06EF82078611C61280AD083
:10080000722802D0772839D102E00125002404E0C3
:100810000225042401E02D4D082402220323012790
:100820000878491C2B2806D0622807D02039C87FB9
:10083000742807D008E01D431443F1E70420054362
:100840003C43EDE7102004430098214600F095FE5C
:10085000411C13D00021316171600121F560490212
:10086000F1617061200704D530460222002100F0BA
:10087000E5F8306D384330653046FEBD0020FEBDE2
:10088000F8B50D460646124C206DC10704D041084C
:1008900004D044086400F7E7224610E0542000F03A
:1008A0009BF8070010D07908206D49000122114300
:1008B0000843542120653846FFF7A2FC3A462946F2
:1008C0003046FFF793FFF8BD0020F8BD028000001E
:1008D00010000020FEB50446466900690F4F0190E4
:1008E000E56800200090A80707D0204600F050F9E6
:1008F000304600F037FE002801DA3846FEBD2805F4
:1009000002D50198FFF71BFE4C212046FFF778FC2B
:10091000206D4008400020650098FEBDFFFFFFFFEE
:1009200010B50446C046C0462046FFF71AFC10BD6D
:1009300010B500F07BF900F073F910BD0048704766
:100940000C010020004870471401002070477047D8
:100950007047704738B504460A4600206946C046CD
:10096000C046002805D002462046009900F07FF9D5
:10097000012038BD10B5012000F0CEF910BDF8B54A
:10098000C046C046054600200C461020C04606461C
:10099000A819A0420DD9324669460020C046C0467B
:1009A000070001D100F0B8F90098A04200D0054638
:1009B000C419FFF7C7FFF61D07460560F008C00021
:1009C0004619284600F04CF9B44204D03146386844
:1009D000A21B00F04CF9F8BD70B50646FFF7B2FF58
:1009E000056830460B30C408E400B44201D800204A
:1009F00070BD68682A46002818D00168A14211D34A
:100A00000B46214608318B4208D3436801194B60DD
:100A100003681B1B0B605160046001E0416851607A
:100A2000001D70BD024640680028E6D121462846D8
:100A3000FFF790FF0028DCD170BD0000F8B5044638
:100A400016460D464769007B800730D0384600F0D7
:100A500091FD00282BD132461026002A25D0012AEC
:100A600002D0022A23D104E0204600F01AF94519E9
:100A70001BE0384600F07BFDE16831430028E1606F
:100A800004DA204600F054F80120F8BDC9030BD564
:100A90006268E16A914200D81146A2698918226908
:100AA000891A814200DD08462D18002D01DA022046
:100AB000F8BDE16A6068E268814206D29103E062B3
:100AC00003D5012149048A433243A669AE4211DCB1
:100AD000E16A814201D90B4600E003469F19236970
:100AE000FF1AAF4206DD814201D90F4600E00746FA
:100AF0009F4206D1202002430020A060A562206012
:100B00000DE0AD1BE669AE1B8142A66000D9084628
:100B1000C01A281A206058196060202082430348B8
:100B200002400020E26040342072F8BDBFCFD7FF02
:100B3000C1688022114392039143C160002181600A
:100B400001607047F7B514460E463348D5685769BB
:100B5000054209D03846A16900F013FD002811DBD9
:100B60002D48C0430540E5602B4632463846009983
:100B700000F00BFD4200A1695208B21A8918002842
:100B8000A16104D02046FFF7D3FF0020C043FEBD83
:100B900070B504460569C06A6168884200D8084695
:100BA000E1680522D2049143E160C90314D5A8424B
:100BB00009D02246411B2846FFF7C4FF002802D077
:100BC0000020C04370BDE56200206560A060E06861
:100BD000012109048843E060002070BD10B504467F
:100BE000C06820218843E060A16AA06988420ED0D5
:100BF0002046FFF7CDFFE068032109038843102159
:100C00000843E060A06AA0612069E0626060034977
:100C1000E0680840E06010BD10000200BFBFFFFFA9
:100C200010B5002801D000F0A0FC10BD10B50146A1
:100C300002A000F057F8012010BD000053494752B0
:100C4000545245443A2052656469726563743A208F
:100C500063616E2774206F70656E3A20000000009B
:100C6000002101604160806070471020704710B51E
:100C70000346406801E003464068002801D08842EE
:100C8000F9D31868C3188B4206D0CB1CD808C00013
:100C9000001D411A521A0146081D0A60FFF74FFC59
:100CA00010BD10B50146C268900703D0900607D565
:100CB000886A0AE000F036F801210160881E10BD44
:100CC0008B694868C0180B69C01A40310B7A002B39
:100CD00002D0497A401A10BD1103FCD50028FADD74
:100CE000401E10BD70B505460C460A2000E06D1C84
:100CF00000F060FC002D06D028780028F7D102E033
:100D0000641C00F057FC002C02D020780028F7D19A
:100D10000A2000F04FFC70BD10B500F007F8FFF797
:100D20007FFF10BD004870470C01002010B501285E
:100D300005D0002103A0FFF7D5FF012010BD09A1B8
:100D4000F8E7000053494752544D454D3A204F753E
:100D500074206F662068656170206D656D6F7279B3
:100D6000000000003A2048656170206D656D6F726B
:100D70007920636F727275707465640010B500F04D
:100D800097FA00F02DFC10BD704700BFFEE7F0B5EC
:100D900002460B46002661E00124B4401968214058
:100DA00000295AD0586814680D464D436F00ED195C
:100DB000AC430D464D4345432C43146000BF586877
:100DC000012802D0586802280DD1986894680D4611
:100DD0004D436F00ED19AC430D464D4345432C4345
:100DE000946000BF00BF1869D4680D464D436F0082
:100DF000ED19AC430D464D4345432C43D46000BF31
:100E00005868022829D1FF2911D85869146A0D465B
:100E10004D434D434D432F017D1BAC430D464D4388
:100E20004D434D4345432C43146200BF15E05F69B9
:100E3000080A40430C0A60430C0A60430401241A68
:100E4000506AA0430C0A64430D0A6C430D0A6C43BC
:100E50007C432043506200BF00BF761C1868F040FE
:100E6000002899D15868012802D05868022809D171
:100E7000DC68186855688543074667433D435560FD
:100E800000BF00BF0020F0BD70B504467D25ED0019
:100E900029462046FFF7B6F9401E04494861002064
:100EA00088610520086100BF70BD000000E000E01F
:100EB00010B5044600F08CFA2060206800F05CFA5F
:100EC0006060606800F06AFAA06010BDF8B5044682
:100ED0000025002C28D1204600F0EEFA002817D07B
:100EE000012804D002280CD0032812D103E000F01E
:100EF0006FFA054617E000F01FF9002800D0234DD7
:100F000011E000F021F9002801D00125ED030AE0ED
:100F100000BF00F05DFA074600F02EFA064600F02A
:100F20003DFA054600BF00BF102C2CD1204600F032
:100F3000C3FA0F2109074018002818D02103401ACE
:100F400004D0401A0CD0401A12D103E000F040FA4D
:100F5000054617E000F0F0F8002800D00B4D11E036
:100F600000F0F2F8002801D00125ED030AE000BFEF
:100F700000F02EFA074600F0FFF9064600F00EFAE0
:100F8000054600BF00BF2846F8BD000000127A00E9
:100F9000014908607047000000000020F0B589B0EA
:100FA00004460D460120089000200790204600F0DE
:100FB000D3F800286AD1E9686868084329690843BA
:100FC000A96908432168334A114008432060A86892
:100FD00061680322120391430143616000BF6869A5
:100FE000A168121191430143A16000BF2A488442C5
:100FF00004D10020FFF76AFF079018E027488442D9
:1010000004D11020FFF762FF079010E024488442CB
:1010100005D104A8FFF74CFF0698079007E0214888
:10102000844204D104A8FFF743FF0698079007986D
:1010300000282BD02868002828D000200890079F7F
:10104000A86903902E680121C9030398884214D12E
:101050007900720888183146FFF7D4F880B2029000
:10106000114902980840019002980007400F019929
:10107000084301900198E06006E07108C819314604
:10108000FFF7C0F880B2E06000BF00BF089809B069
:10109000F0BD0000F369FFEF00380140004400405C
:1010A00000480040004C0040F0FF000008B509492E
:1010B00009690091411C002900D0401C07E0054946
:1010C0000969012212041140002900D0401E0028A5
:1010D000F5D108BD00E000E07047704770477047E9
:1010E0007047000000BF0549C969802211400029EE
:1010F000F9D00249203108817047000000440040C7
:1011000010B50120800500F083F90120000500F0F2
:101110007FF90748006801218905084304490860F0
:10112000044800680121890408430249086010BD91
:10113000000C0048000800480248006802210840EE
:1011400040087047001002400248006A022108402F
:10115000400870470010024001460868C007C00FF1
:10116000012250405040704710B501204C49096899
:10117000814301434A4A116000BF00BF1046006826
:10118000C007C00F002801D1FFF7FEFD00BF454892
:101190000068012108434349086000BF00BF00BF49
:1011A000404800680221084040080028F7D010207D
:1011B0003C490968F8229143C2001143394A116041
:1011C00000BFC00241010022364B5B687B24E40370
:1011D000A34304460C432343324C63602346DB6A3B
:1011E0001B091B011343E36200BF00BF20460068D8
:1011F000090108432146086000BF00BF00BF29481D
:101200000068012149060840400E0028F6D0002061
:1012100024494968F02291430143224A516000BFAA
:1012200000BF1146496807221202914301431D4A3B
:10123000516000BF022011464968890889000143B6
:10124000516000BF00BF00BF164840680C21084035
:101250000828F8D11448FFF717FE0420042806D107
:101260001249096904221143104A116105E00F492E
:101270000969042291430D4A116100BF0A48FFF732
:1012800087FE012000070749096B030E03229A40DD
:1012900091430202120A1143024A116300BF10BDBA
:1012A0000020024000100240006CDC0200E000E080
:1012B00000B58DB01C2106A8FEF7A2FF18216846D4
:1012C000FEF79EFF0120400400F0B0F80120000569
:1012D00000F09EF820200090022001900320029050
:1012E000002003900490059069462148FFF74FFDC8
:1012F00040200090022001900320029000200390E3
:101300000490059069461A48FFF741FDE12040022C
:10131000069000200790089009900C200A90002069
:101320000B900C9006A91348FFF738FE00BF114838
:1013300080680121890288430E49886000BF00BF90
:10134000084640680921C90288430A49486008469E
:1013500080682A2188430749886000BF00BF08468B
:101360000068012108430349086000BF0DB000BDBB
:10137000000C004800440040014600BF054840689A
:10138000F022104010400009034A125C0846D04089
:10139000704700000010024044160008014600BFDC
:1013A00005484068072212021040000A034A125CF6
:1013B0000846D04070470000001002405416000854
:1013C000024840680C2108407047000000100240AD
:1013D00010B50024FFF7F4FF002806D0042806D03B
:1013E000082806D00C280AD107E0074C09E0064C73
:1013F00007E000F029F8044603E0044C01E0024C49
:1014000000BF00BF204610BD00127A00006CDC0255
:1014100008B5054949690143034A516111464969C3
:101420000140009108BD00000010024008B50549C8
:10143000C9690143034AD1611146C969014000915C
:1014400008BD00000010024070B50024002500BF58
:10145000164840680321C903084005460120C0031F
:10146000281A06D00121C903401A06D0401A06D115
:1014700001E00F4C05E00F4C03E00D4C01E00C4C7B
:1014800000BF00BF00BF0948C06A0007000F461C2C
:1014900031462046FEF7B6FE044949680F22920401
:1014A00011401140890C891C484370BD0010024056
:1014B00000127A00006CDC0201460448006B032233
:1014C0008A4010400A061043704700000010024096
:1014D00001290CD10D4A92694B021A430B4B9A61B8
:1014E0000B4A9269CB021A43094B9A610DE0074AF5
:1014F000926A01235B021A43044B9A62044A926A7D
:101500000123DB021A43024B9A627047000800482D
:10151000000C004810B50446FFF7F2FDFFF7C8FEC7
:1015200010BD000010B5044602A0FEF73DFE2046A7
:1015300010BD000068656C6C6F2074686973206969
:1015400073206120632B2B20746573742C696E6982
:101550007420546573744750494F20636C617373F2
:101560000D0A000001460020704700BFFEE701465B
:10157000002070470146012070470246FF200130DD
:10158000704702460020C0437047F0B506460C463F
:1015900015461F46002309E0E05CFFF7A3FDE05C71
:1015A0000A2802D10D20FFF79DFD5B1CAB42F3D34F
:1015B0000020F0BD10B50346DCB22046FFF792FDD7
:1015C00010BD10B58A68002A02DCFEF7F1FF10BDDD
:1015D000521E8A604A68C0B2531C4B60107010BD26
:1015E0001CB501A8FFF79EFF01201049896901433E
:1015F0000E4A9161114689690140009100BF0007C0
:10160000FFF714FFFFF7B0FD01A8FFF783FF0024E9
:101610000BE0214601A8FFF75BFF601C84B2082C99
:1016200000DD00246420FFF741FDF2E700100240D6
:10163000535444494E005354444F5554005354445A
:1016400045525200000000000000000001020304A7
:101650000607080900000000010203047C160008C8
:101660000000002010000000000100088C16000897
:1016700010000020601100001C01000800127A0018
:0C1680000000000000000000000000005E
:04000005080000BD32
:00000001FF
