:020000040800F2
:10000000682F0020B102000809460008BB42000822
:1000100000000000000000000000000000000000E0
:100020000000000000000000000000000D46000875
:1000300000000000000000000B4600080F4600080A
:10004000C3020008C3020008C3020008C30200087C
:10005000C3020008C3020008C3020008C30200086C
:10006000C3020008C3020008C3020008C30200085C
:10007000C3020008C3020008C3020008C30200084C
:10008000C3020008C3020008C3020008C30200083C
:10009000C3020008C3020008C3020008C30200082C
:1000A000C3020008C3020008C3020008C30200081C
:1000B000C3020008C3020008C302000800F002F8EF
:1000C00000F0CAF80CA030C8083824182D18A24631
:1000D000671EAB4654465D46AC4201D100F0BCF809
:1000E0007E460F3E0FCCB6460126334200D0FB1AA7
:1000F000A246AB4633431847F88600001887000035
:10010000103A02D378C878C1FAD8520701D330C860
:1001100030C101D504680C60704700000023002442
:1001200000250026103A01D378C1FBD8520700D32E
:1001300030C100D50B60704710B56E2902D100F0B8
:1001400025FF10BD702902D101F067F810BD6629A6
:1001500002D107F04DFE10BD652902D107F048FE1F
:1001600010BD672902D107F043FE10BD612902D1FD
:1001700007F046FE10BD03681B0A01D38023194314
:10018000692902D100F0CCFE10BD642902D100F033
:10019000C7FE10BD752902D100F0C2FE10BD6F2947
:1001A00002D100F0E5FF10BD782902D101F022F85C
:1001B00010BDE92902D100F081FF10BDE42902D170
:1001C00000F07CFF10BDF52902D100F077FF10BDD3
:1001D000EF2902D100F0D8FF10BDF82902D101F0BB
:1001E00017F810BD0368DB0901D380231943632985
:1001F00002D102F0D2FA10BD732902D102F0D5FA71
:1002000010BDE32902D102F0DFFA10BDF32902D1BB
:1002100002F0E2FA10BD002010BD1FB50098019950
:1002200000F0E7FD00F0C4FD04000020002106F00E
:10023000C1F9401C60600020002106F0D1F9E060A7
:1002400000F01AFC00F026FA1FBD10B5002000F0E7
:10025000F4FC00F07DFC10BD01F028FE1146FFF714
:10026000DCFF06F07FF903F023F803B4FFF7EDFF9E
:1002700003BC06F0D7F8000070B505460C461646DC
:1002800002E00FCC0FC5103E102EFAD2082E02D37A
:1002900003CC03C5083E042E07D301CC01C5361F8D
:1002A00003E021782970641C6D1C761EF9D270BDA4
:1002B0000748804707480047FEE7FEE7FEE7FEE7FE
:1002C000FEE7FEE704480549054A064B7047000073
:1002D00011460008BD000008681F0020682F00209C
:1002E00068270020682700200FB4054910B503AA2D
:1002F000029800F075FA10BC08BC04B01847000062
:10030000D400002070B50446C068810713D0800671
:1003100001D5A56A04E0A169606840182169451A01
:10032000204600F061FB002206462946204600F0E8
:100330008FFA304670BD002070BD70B5002802D025
:10034000FFF7E0FF70BD0025074C6E1E08E0204659
:10035000FFF7D8FF002800D03546206D4408640020
:10036000002CF4D1284670BD80000020F8B5074667
:1003700015460E46102000F0B5F9040009D067605C
:10038000A660E56000F0AAF9016821600460002021
:10039000F8BD0120F8BD000030B5441C03E0017831
:1003A000401C00290DD08107F9D10B4BDD0104C899
:1003B000D11A91432940FAD0001B0A0603D0C01E6F
:1003C00030BD001B30BD0A0401D0801E30BD0902C3
:1003D000FCD0401E30BD000001010101F8B5042A27
:1003E0002CD3830712D00B78491C0370401C521E7B
:1003F00083070BD00B78491C0370401C521E8307E7
:1004000004D00B78491C0370401C521E8B079B0FB5
:1004100005D0C91ADF002023DE1B08C90AE0FFF758
:100420002BFFF8BD1D4608C9FD401C46B4402C43B7
:1004300010C0121F042AF5D2F308C91A521EF0D4B4
:100440000B78491C0370401C521EEAD40B78491CDF
:100450000370401C012AE4D409780170F8BD431AE6
:1004600070B593421BD28918801804E0491E401EC3
:100470000B78521E03709307F8D106E0103910383C
:1004800078C9103978C01038103A102AF6D203E033
:10049000091F001F0B680360121FF9D570BDFFF71D
:1004A000EBFE70BDF8B5064614460843800707D03A
:1004B000751AA54219D20819102D13D2311907E067
:1004C0003046FFF7CCFFF8BD401E491E02780A7087
:1004D000641EF9D2F8BD471B2A463946FFF77EFF56
:1004E000641B3846A542F6D3011B22463046FFF76F
:1004F00075FFF8BD01E004C0091F0429FBD28B077A
:1005000001D50280801CC90700D002707047002905
:100510000BD0C30702D00270401C491E022904D32D
:10052000830702D50280801C891EE3E70022EEE7E4
:100530000022DFE7002203098B422CD3030A8B42FF
:1005400011D300239C464EE003460B433CD40022CB
:1005500043088B4231D303098B421CD3030A8B42DD
:1005600001D394463FE0C3098B4201D3CB01C01AAB
:10057000524183098B4201D38B01C01A5241430976
:100580008B4201D34B01C01A524103098B4201D364
:100590000B01C01A5241C3088B4201D3CB00C01AD1
:1005A000524183088B4201D38B00C01A5241430849
:1005B0008B4201D34B00C01A5241411A00D201466E
:1005C0005241104670475DE0CA0F00D04942031007
:1005D00000D34042534000229C4603098B422DD356
:1005E000030A8B4212D3FC22890112BA030A8B42FE
:1005F0000CD3890192118B4208D3890192118B424D
:1006000004D389013AD0921100E08909C3098B42D1
:1006100001D3CB01C01A524183098B4201D38B0114
:10062000C01A524143098B4201D34B01C01A5241B7
:1006300003098B4201D30B01C01A5241C3088B42FC
:1006400001D3CB00C01A524183088B4201D38B00E7
:10065000C01A5241D9D243088B4201D34B00C01A71
:100660005241411A00D20146634652415B10104686
:1006700001D34042002B00D54942704763465B10CE
:1006800000D3404201B50020C046C04602BD7047BD
:100690007047704770B5064C7C44064D7D4403E0BE
:1006A000206800198047241DAC42F9D170BD0000BC
:1006B000C0820000CC82000010B505F0B9FD05F045
:1006C0000BFD10BD10B500F073FB001D10BD00BF89
:1006D000E55E000000487047281F00200048704772
:1006E0002C1F002070B5064600F05EFB0568304602
:1006F0000B30C408E400B44201D8002070BD686823
:100700002A46002818D00168A14211D30B46214681
:1007100008318B4208D3436801194B6003681B1BE7
:100720000B605160046001E041685160001D70BDC4
:10073000024640680028E6D12146284600F044FBE6
:100740000028DCD170BD70B50446051F00F02CFBFD
:100750000068002C1AD0446801E020466468002C30
:1007600001D0AC42F9D301680A18AA4204D12A6820
:1007700005468918016000E0456028684119A142DA
:1007800005D16168696021684018286070BD6C609F
:1007900070BD0FB4014610B504AA039800F020F80C
:1007A00010BC08BC04B018477CB51D4616460C00AA
:1007B000009001D00019401E084B7B442A46694630
:1007C0000190304600F0FBFB002C054603D0694643
:1007D000002000F007FC28467CBD00003108000026
:1007E000084B70B50D467B4400F0E9FB04462846F3
:1007F00000F02AF8002802D00020C04370BD204637
:1008000070BD0000935C00000FB400B58DB010A95E
:1008100009900B900020C04300910A9000200C909A
:10082000074878440690074878446A4607900F992D
:1008300009A800F087FF0DB008BC04B018470000FD
:10084000430F00005D0F0000C06880210840704722
:10085000F8B5044616460D464769007B800730D040
:10086000384605F0E4FD00282BD132461026002A38
:1008700025D0012A02D0022A23D104E0204600F02C
:1008800061F845191BE0384605F0CEFDE1683143BB
:100890000028E16004DA204600F076F80120F8BD77
:1008A000C9030BD56268E16A914200D81146A2697A
:1008B00089182269891A814200DD08462D18002D09
:1008C00001DA0220F8BDE16A6068E268814206D27E
:1008D0009103E06203D5012149048A433243A669AA
:1008E000AE4211DCE16A814201D90B4600E00346C9
:1008F0009F192369FF1AAF4206DD814201D90F46D5
:1009000000E007469F4206D1202002430020A0605D
:10091000A56220600DE0AD1BE669AE1B8142A660BA
:1009200000D90846C01A281A206058196060202093
:100930008243034802400020E26040342072F8BD48
:10094000BFCFD7FF10B50146C268900703D090060D
:1009500007D5886A0AE000F02FFA01210160881E9D
:1009600010BD8B694868C0180B69C01A40310B7AFA
:10097000002B02D0497A401A10BD1103FCD5002883
:10098000FADD401E10BD0000C168802211439203B1
:100990009143C1600021816001607047F7B5144642
:1009A0000E463348D5685769054209D03846A169D3
:1009B00005F044FD002811DB2D48C0430540E560EB
:1009C0002B4632463846009905F03CFD4200A169AD
:1009D0005208B21A89180028A16104D02046FFF7F6
:1009E000D3FF0020C043FEBD70B504460569C06A50
:1009F0006168884200D80846E1680522D204914324
:100A0000E160C90314D5A84209D02246411B2846FB
:100A1000FFF7C4FF002802D00020C04370BDE5628C
:100A200000206560A060E068012109048843E0605F
:100A3000002070BD10B50446C06820218843E060E6
:100A4000A16AA06988420ED02046FFF7CDFFE0687A
:100A500003210903884310210843E060A06AA061D4
:100A60002069E06260600349E0680840E06010BD12
:100A700010000200BFBFFFFF10B543485421FFF72D
:100A800057FD42485421FFF753FD41485421FFF7D9
:100A90004FFD40483C493D4B404A01603E480360A1
:100AA0003B4810605A1C0A65411C1965012101650B
:100AB0003C48354A3AA1784401F008F8002804D1AE
:100AC000384878440C3801F09BF938482F4A36A151
:100AD000784400F0FBFF002804D1344878440C38F7
:100AE00001F08EF932482A4A2FA1784400F0EEFF37
:100AF000002804D12E4878440C3801F081F94023B5
:100B00002148DC000021224600F0BAFF002804D072
:100B1000244878445C3801F073F91C48224640238D
:100B2000002100F0ADFF002804D0204878445C3854
:100B300001F066F9164822461023002100F0A0FFBC
:100B4000002804D01A4878445C3801F059F910BDE7
:100B50000F4870B5006D44080B48640000F02AF897
:100B60000A4800F027F80A4800F024F809E0206D50
:100B7000450820466D0000F01DF82046FFF7E3FD14
:100B80002C46002CF3D170BD80000020D400002042
:100B900028010020080000200C0000201000002088
:100BA000720000008673000077000000727300007E
:100BB0005F730000FEB50446466900690F4F01905F
:100BC000E56800200090A80707D02046FFF70CFF3B
:100BD000304605F024FC002801DA3846FEBD280521
:100BE00002D50198FFF7AFFD4C212046FFF7A0FC8E
:100BF000206D4008400020650098FEBDFFFFFFFF0C
:100C000010B50A460146024801F023F810BD000065
:100C1000C81E0020002804D00068002801D0002051
:100C200070470120704710B5002001F0E3F8FFF78E
:100C30000CFB012005F0F6FB10BDF8B50646FFF7EA
:100C40004DFD0090054615E0002E02D0E068B04250
:100C50000FD1206828600098A168076860688847FD
:100C60002046FFF770FD00980068B84202D0009857
:100C7000E8E725462C68002CE6D1F8BD034670B5A0
:100C800002460B439B070FD10E4CE60100E008C261
:100C900008C91D1B9D433542F9D0D9B21170521CB1
:100CA00000290DD01B0AF8E70B78491C1370521C61
:100CB000002B05D00B78491C1370521C002BF3D16C
:100CC00070BD0000010101010022CBB20178401C7F
:100CD000994200D1421E0029F8D11046704710B544
:100CE000520001F093F810BD421E5378521C002BA5
:100CF000FBD10B78491C1370521C002BF9D17047A3
:100D000010B50446FFF76AFB204610BD024670B5D9
:100D10000A4392072AD11E4DEE0104C808C9541B8C
:100D20009443344017D0D0B2D9B2401A21060143BF
:100D300010D190B299B2401A210401430AD1100295
:100D40001902000A090A401A2102014302D1100EB9
:100D5000190E401A70BD9A42DFD010BA19BA8842F3
:100D600001D9012070BD0020C04370BD02780B780E
:100D7000401C491C002A09D09A4207D102780B78FE
:100D8000401C491C002A01D09A42EFD0D01A70BDF5
:100D90000101010110B501F050F810BD00DE0000A6
:100DA00000487047F41E002000487047FC1E0020D9
:100DB00000487047141F002000487047F41E0020B0
:100DC000704770477047704738B504460A460020A0
:100DD0006946C046C046002805D002462046009914
:100DE00001F088F8012038BD10B5012002F0A0FA0A
:100DF00010BDF8B5C046C046054600200C46102080
:100E0000C0460646A819A0420DD9324669460020C0
:100E1000C046C046070001D102F08AFA0098A042FD
:100E200000D00546C419FFF7BFFFF61D0746056051
:100E3000F008C0004619284600F008F8B44204D073
:100E400031463868A21B01F055F8F8BD0021016059
:100E50004160806070471020704770B50446856916
:100E60000068C10601D5302600E02026C00707D063
:100E700070BD62683046A1689047206A401C2062BD
:100E80006D1EF6D570BD70B5044685690078C00743
:100E900007D170BD6268A16820209047206A401C7D
:100EA00020626D1EF6D570BD09684A0501D540B2B5
:100EB0007047C905FCD500B2704709684A0501D5DD
:100EC000C0B27047C905FCD580B2704770B50C46FA
:100ED0000546012A05D02878800600D5EA69002356
:100EE00002E0012305E05B1C934202D2E05C002893
:100EF000F9D1A869E618C01AA861286AC018286242
:100F00002846FFF7AAFF04E06A682078A968641CF5
:100F10009047B442F8D32846FFF7B5FF70BD0000F4
:100F2000F7B5002575291068009914A611D0FFF7B0
:100F3000BBFF002802DA404211A608E000990968C8
:100F40008A0701D50FA602E0490704D50EA60125A0
:100F500001E0FFF7B2FF009F0024243704E002F015
:100F6000EDF930313955641C0028F8D12B46324652
:100F70002146009801F036F8FEBD00000000000098
:100F80002D0000002B000000200000001168026806
:100F9000006A530501D5087009E0D30501D5088022
:100FA00005E0130602D5C21705C100E00860012064
:100FB0007047000001694A1C02610878704700B55B
:100FC0008FB0029100210591054901937944039165
:100FD00011460490684600F02DF90FB000BD0000E6
:100FE000E5FFFFFF0A681070521C0A6070470CC9C9
:100FF00008399A4202D2531C0B60107070470000EF
:10100000F7B50446154686B02B487844002703C838
:101010003E460090019111E007986A467100415ADE
:1010200002A800F0C7FE411C07D02178890603D52D
:10103000E269391891420ED83F18761C2078800654
:1010400002D5E069B84206DDAE42E5DB07987100E3
:10105000405A0028E0D1A069C01BA0612046FFF7DC
:10106000FCFE154878445A3803C8009000200191CE
:1010700016E041006A460798415A02A800F09AFE1D
:101080000590401C0AD0002505E0626802A8A1680E
:10109000405D90476D1C05988542F6D30498401C2E
:1010A000B0420490E5DB206AC01920622046FFF7B9
:1010B000EAFE09B0F0BD000012710000F7B5D21DC4
:1010C0000025D20815A6D200F52905CA11D0002A9C
:1010D00005DA00214042914111A60A4608E0009934
:1010E00009688B0701D50FA602E0490701D50EA6B6
:1010F00001251146009F0024243704E000F02CFF56
:1011000030323A55641C02460A43F7D12B46324628
:101110002146009800F066FFFEBD000000000000C0
:101120002D0000002B0000002000000070B50446D8
:101130000021243408E05507D2086D0F303565547E
:101140005D072A43DB08491C15461D43F3D104689B
:10115000002310A2250708D5A40601D4002904D035
:10116000C46901230CA2641EC46100F03BFF70BD82
:1011700010B5044621461068FFF79FFE0023024683
:101180002046FFF7D3FF10BDD21DD108C9000CC9FE
:10119000CCE700000000000030000000F8B50F466A
:1011A0000188090502D5224C7C4402E0204C7C4495
:1011B0000E3405460021243508E016071209360FC3
:1011C000A65D6E541E0732431B09491C16461E437A
:1011D000F3D1224604780023240705D5702F06D0CA
:1011E000002901D00223113200F0FCFEF8BD0123DA
:1011F0001032F9E770B504460D4621461068FFF736
:101200005CFE0023024629462046FFF7C7FF70BD5B
:10121000D21DD308DB000CCBC0E730B40368202418
:101220001268234303600823C36130BC0023B5E781
:101230007C6F0000F3B50446002081B02062204698
:10124000E1688847002872D0252802D06268A1682A
:10125000ABE0594F00267F442046E16888472028AC
:10126000054608DB312D06D2781920380078002891
:1012700001D00643F0E7B00701D5042086430020E3
:10128000E0610746A0612A2D0AD0284605F0C0F883
:10129000002827D0B8000019303D0090856119E082
:1012A0000298BA00121902C8916102902046E168C2
:1012B0008847012F054617D1E06900281FDA202052
:1012C00086431CE000980A21806948430099401930
:1012D000303888612046E1688847054605F098F86F
:1012E0000028EFD1012F0AD02E2D08D12046E16829
:1012F00088470546202006437F1C022FC3DBA069D8
:10130000002803DA4042A06101200643F00701D023
:10131000102086436C2D0BD0682D09D04C2D3CD06D
:101320006A2D38D0742D38D07A2D36D016E040E0B2
:10133000E1682F4620468847B842054609D16C2F00
:1013400029D001208002E1680643204688470546EF
:1013500004E06C2F1DD0FF2001300643002D28D063
:1013600028464138192803D80120C00206432035F9
:10137000204626602946029A1646FEF7DDFE002822
:1013800010D001280BD0F61DF008C00008300290E4
:1013900055E74020E1E78020D5E70020D3E7361D60
:1013A00002964CE762682846A1689047206A401C74
:1013B00044E7206AFEBD0000F66E0000FFB51C4643
:1013C0000025ED4385B00020009001909F685E6885
:1013D000A16906986D1C88470290216A88470028F9
:1013E000F6D10298401C0CD0032040028643002F07
:1013F00019DD700614D502982B2809D02D280FD19D
:1014000003E00020C04309B0F0BD01208002064384
:10141000A16906986D1C88477F1E002F029002DD8F
:101420000298302803D00798002828D024E0012013
:10143000A169400206436D1C06987F1E8847002F55
:10144000029003DD782805D0582803D0079800289B
:1014500010D011E00798002801D010280CD10120ED
:10146000A169400286436D1C06987F1E8847029042
:10147000102000E008200790C017039016E00A2013
:10148000F9E70120039B40020643079A019900985F
:101490007F1E00F049FD029AD3178018594101912F
:1014A0000090A16906986D1C88470290002F06DD08
:1014B0000799029801F094F900280290E1DAE169B5
:1014C00006988847B00502D40120C0439BE7F00787
:1014D00010D1700610D5700505D50098019B00222B
:1014E00041429A4101E0019A00992068031D23605E
:1014F000006806C0284686E72068011D2160006854
:10150000019A0099F5E7FFB51D460027FF4383B018
:101510005C68002001909E68A96904987F1C884738
:101520000090296A88470028F6D10098401C0CD00A
:10153000032040028443002E19DD600614D5009874
:101540002B2809D02D280FD103E00020C04307B07D
:10155000F0BD012080020443A96904987F1C8847DC
:10156000761E002E009002DD0098302803D00598EA
:10157000002825D035E00120A96940020443761EE9
:1015800004987F1C8847002E009003DD782805D042
:10159000582803D00598002810D022E0059800288C
:1015A00001D010281DD10120A96940028443761E74
:1015B00004987F1C88470090102002E0082000E07B
:1015C0000A2005900DE00121059A49020C4301997A
:1015D000761E514308180190A96904987F1C88471A
:1015E0000090002E05DD0599009801F0F9F800281B
:1015F000E9DAE96904988847A00502D40120C043CC
:10160000A5E7E00722D1600611D56005019800D555
:10161000404229680A1D2A600968220501D5087020
:1016200014E0220701D5088010E008600EE0286869
:10163000011D29600068210502D50199017005E0AE
:101640002107019901D5018000E0016038467EE75D
:10165000FFB5144683B0002000260090506801902A
:1016600091699768049888470C990546069808433D
:1016700005D009E0A1690498761C88470546216ACF
:10168000284688470028F5D1681C03D00198C00778
:1016900004D017E00020C04307B0F0BD2068011D52
:1016A0002160006800900DE00198C00704D1009807
:1016B00005700098401C0090A169761C04987F1E5C
:1016C00088470546002F1CDD681C1AD006980028A4
:1016D0000FD0E817C00E4019411140098A00069941
:1016E000400151182A1A0968012090400142DBD1BB
:1016F00007E00C980028D7D12846216A884700289F
:10170000D2D0E169049888470C98002807D1002EB0
:1017100005DD0198C00702D1009800210170A06882
:10172000B84204DD0C98002804D0002F02D001201C
:10173000C043B1E73046AFE7026851181378016043
:101740001846704710B5D160054979445161054983
:101750007944116200211161114601F051F810BD68
:10176000EBFFFFFF7F0800004268002A08D00168F5
:101770000B78491C002B03D0521E06C01846704738
:101780000121C160881E70474268002A0BD0C368DF
:101790000168002B07D183688B4204D0491E521C7C
:1017A00006C0002070470020C0437047FFB51446B4
:1017B00087B0002001905068039097680020029045
:1017C0000646049005909169089888471099054647
:1017D0000A98084305D009E0A1690898761C884753
:1017E0000546216A284688470028F5D1681C03D0A1
:1017F0000398C00704D02CE00020C0430BB0F0BD1C
:101800002068011D21600068019022E004AA68465A
:10181000E9B200F0B1FA411C07D0801C09D00020C9
:1018200002900398C00707D00DE0E1690898884747
:1018300046E00120029007E0684601880198018097
:101840000198801C01907F1EA1690898761C88472A
:101850000546002F1CDD681C1AD00A9800280FD0FE
:10186000E817C00E4019411140098A000A99400149
:1018700051182A1A0968012090400142C6D107E098
:1018800010980028C2D12846216A88470028BDD078
:10189000E169089888470298002811D1109800281B
:1018A00006D1002E04DD0398C00701D101990880FC
:1018B000A068B84204DD1098002804D0002F02D0A0
:1018C0000120C0439AE7304698E7FFB5144685B03B
:1018D0000020009050680190966800200290054614
:1018E000039091690698884710990746089808431D
:1018F00005D009E0A16906986D1C88470746216A52
:10190000384688470028F5D1781C03D00198C007D5
:1019100004D01CE00020C04309B0F0BD2068011DC8
:1019200021600068009012E00198C00709D1B9B2A7
:10193000009802AA00F03EFA411C34D00099081821
:101940000090A1696D1C0698761E88470746002EF8
:1019500014DD781C12D00898002807D03B460F9A57
:101960000E9901F09DFB0028DED107E010980028B9
:10197000DAD13846216A88470028D5D0E16906982F
:1019800088471098002806D1002D04DD0198C00773
:1019900001D100990870A068B04204DD10980028B9
:1019A00004D0002E02D00120C043B5E72846B3E79B
:1019B000FFB5144683B000273D46506801909169F9
:1019C00096680498884700900E990698084305D0B9
:1019D00009E0A16904986D1C88470090216A00986D
:1019E00088470028F5D10098401C03D00198C00713
:1019F00004D014E00020C04307B0F0BD2068011DF2
:101A0000216007680BE00198C00702D10098388078
:101A1000BF1CA1696D1C0498761E88470090002E9B
:101A200015DD0098401C12D00698002807D0009BB6
:101A30000D9A0C9901F034FB0028E4D107E00E98D0
:101A40000028E0D1216A009888470028DBD0E169AE
:101A5000049888470E98002805D1002D03DD0198D1
:101A6000C00700D13880A068B04204DD0E9800287D
:101A700004D0002E02D00120C043BDE72846BBE7BA
:101A800070B5C468A50713D0650211D4D51FF93D00
:101A90000AD0FF3D6D1E07D0FF3DFF3D022D07D14F
:101AA00001462431012305E0074E5D1EB54201D3F6
:101AB000012070BD0161C36141600F2109028C43A7
:101AC0001443C460002070BDFFFFFF00F7B5164649
:101AD0000C461046FFF76EF82078611C61280AD08A
:101AE000722802D0772839D102E00125002404E0D1
:101AF0000225042401E02D4D08240222032301279E
:101B00000878491C2B2806D0622807D02039C87FC6
:101B1000742807D008E01D431443F1E7042005436F
:101B20003C43EDE7102004430098214604F082FC7A
:101B3000411C13D00021316171600121F56049021F
:101B4000F1617061200704D5304602220021FEF7C2
:101B50007FFE306D384330653046FEBD0020FEBD4F
:101B6000F8B50D460646124C206DC10704D0410859
:101B700004D044086400F7E7224610E05420FEF742
:101B8000B1FD070010D07908206D490001221143F2
:101B90000843542120653846FEF7CAFC3A462946D8
:101BA0003046FFF793FFF8BD0020F8BD028000002B
:101BB0008000002070B5064608464A4290430FD088
:101BC0002A20741C00253070FFF7F2F80346A900A4
:101BD00000225858010F000109292DD957312CE056
:101BE000042913D004DC012908D0022904D109E01A
:101BF00008290FD0102911D0002070BDFFF7D8F8A8
:101C000000680EE0FFF7D4F840680AE0FFF7D0F86C
:101C1000806806E0FFF7CCF8C06802E0FFF7C8F87C
:101C20000069002806D08008800001468039C96F0D
:101C3000081870BD4EA070BD30312170521C641C5C
:101C4000082AC7D36D1C052DC1DB0020207030464B
:101C500070BD10B5002901D04B0901D0002010BD86
:101C6000002A05D013782A2B05D000F036F810BDD5
:101C7000FFF7A0FF10BD00F001F810BDF7B50F464B
:101C8000541C0025002631462078641C0246303A58
:101C9000092A03D90346613B052B17D8392801D8F7
:101CA000104600E0573836010643491C0829EBD39B
:101CB0000120A840384203D0FFF77AF8A900465027
:101CC0006D1C052DDEDB2078002801D00020FEBD34
:101CD00000983946FFF76EFFFEBDF8B50C46064684
:101CE000154688070AD511462248784404F062FC5C
:101CF000071E3BD0FFF75CF87F1C4760E0070AD067
:101D000029461C4878441A38C046C046071E2DD0C4
:101D1000FFF74EF8076060070AD529461548784452
:101D20003438C046C046071E20D0FFF741F8876010
:101D300020070AD529460F4878444E3804F050FC55
:101D4000071E13D0FFF734F8C760E0060AD529460E
:101D5000084878446838C046C046051E06D0FFF7DC
:101D600027F8056121463046FFF724FFF8BD000043
:101D7000430000004E6C000070B516460C46054648
:101D8000FEF7A0FC0368FF200230C05C012805D0EC
:101D9000185D00280BD001202C8070BDFF33324627
:101DA000214604331868C3182846984770BD0020A0
:101DB000C04370BD70B516460C460546FEF782FC62
:101DC0000368FF200230C05C012807D0FF2C0ED82A
:101DD000185D00280BD001202C7070BDFF333246F7
:101DE000214608331868C3182846984770BD00205C
:101DF000C04370BD10B501F069FA01F061FA10BD81
:101E000010B501F07BFA01F05BFA10BD10B5044685
:101E1000FEF748FB204610BDF8B517460E460546AE
:101E2000002B07D0104658434419E41B2046B04706
:101E3000A542FAD128460838F8BD10B500F00FF8D1
:101E40000169002903D000220261884701E080680F
:101E50008047FEF7E8FE000010B5FEF7E4FE70B51F
:101E600000F044F804680546002C15D12020FEF748
:101E700039FC040012D0002009492C6003C4094930
:101E800021602071A060E06007492061083C0029C2
:101E900001D001F067FAE061204670BDFEF7C3FE95
:101EA00000000000591E0008000000007546FEF703
:101EB00077FFAE46050069465346C008C000854618
:101EC00018B020B5FEF7FEF960BC00274908B646F9
:101ED0000026C0C5C0C5C0C5C0C5C0C5C0C5C0C539
:101EE000C0C5403D49008D4670470000004870471E
:101EF000301F002010B50346406801E003464068EB
:101F0000002801D08842F9D31868C3188B4206D044
:101F1000CB1CD808C000001D411A521A0146081DEA
:101F20000A60FEF710FC10BD4343514330B55C1806
:101F3000010C130C0D4692B25D4380B251432C1933
:101F4000054655430A0C09044D1962415843010CDA
:101F500000044019514130BD0B4670B50246890757
:101F60008008084319469D08141AA9412509080745
:101F7000054308092C194841250A01060D43010AA9
:101F80002C194141200C0D0428430D0C00194D4122
:101F9000002140194D41C00869070843E908840F32
:101FA0008D002543840024184D4124196D41121BD6
:101FB000AB4107E00925ED432C1152196341002480
:101FC000401C61411C460A250026551BB441F1D234
:101FD00070BD10B50446FEF775FB0068005DC007D4
:101FE000C00F10BDFFB504460D4681B024300090EF
:101FF0002168880604D51022E0699143216000E041
:102000000120A84201DD471B00E000270498A169D8
:102010007A191018081AA0612078C00602D4204648
:10202000FEF71BFF002608E003986268A168805D48
:102030009047206A401C761C206204988642F3DB9D
:102040002078C0060AD52046FEF707FF06E0626842
:10205000A16830209047206A401C206238467F1ECD
:102060000028F4DC07E000986268A168405D9047B2
:10207000206A401C206228466D1E0028F3DC2046A2
:10208000FEF701FF2078000602D5022005B0F0BD62
:102090000120FBE77047FFB50C461E468FB003CA10
:1020A000089009914F007D0D00D16D1E002108465A
:1020B0000020C0460321099A89050840002A03DA56
:1020C0008200801840080840800D01280A9002DD37
:1020D0000020C0430A90089807430DD0F048F1490A
:1020E000281848430714189800281DD07542291E47
:1020F0001DDD0A9842421BE01898012802D00020FA
:10210000302104E00020F24305E02154401CB0429D
:10211000FBDB30460022189B002121540F998B6075
:102120000A60486013B0F0BDBD1B6D1CDFE70A9A62
:10213000002900DA69420BA801F0C2F90BAB07CB0A
:1021400003AB07C30899099801F026FA6B4607C349
:102150000146D5480918002D00910BDDD24903989E
:102160000A9A49424018002303A90390684601F0E7
:1021700083FC08E003990A9A0023081803A9039036
:10218000684601F023FC6B4607C30004000C03D033
:102190000020C043410800E01046189A002A03D0EE
:1021A0000022009215461EE0751E05D4FFF7D4FEEE
:1021B000303262556D1EF9D501220843079602D0D0
:1021C00000227F1C04E02078302801D100227F1EED
:1021D000002A069787D01EE0112D07DAFFF7BCFE14
:1021E000303262556D1C02460A43F5D1084303D0D4
:1021F0000098002819D00EE00021681E05E0235C3D
:10220000625C63542254401E491C8142F7DBA81BC8
:10221000401E07950690079A18990020A0540F9821
:10222000079B069A81600CC07CE71126002018905D
:1022300059E7D21DF0B50D460446D10893B0C90048
:1022400003C90C900D9103F0DDFF02460D98C00FFD
:1022500001D02D2007E02068810701D52B2002E066
:102260004007C00F4001032A0F9001D0072A05DB69
:1022700003462946204601F0DFF80EE1207880066B
:1022800001D5E76900E006272846652D04D06628B9
:1022900014D0672D69D12DE00020112F009001DBB3
:1022A000112300E07B1C0CAA03A910A8FFF7F3FE82
:1022B0001199002610987D1C0E9142E001203B46AA
:1022C0000CAAC0070B900120009003A910A8FFF7EB
:1022D000E2FE119D12981099002600280E9501D15A
:1022E000781C0D18781B02D446427D1C761EE81B14
:1022F00000903AE0012F00DA01270020112F009012
:1023000001DD112300E03B460CAA03A910A8FFF74A
:10231000C2FE11993D46109800260E9121780907BA
:102320000BD40E99A94200DA0D4603A9012D04DD54
:102330004A19203AD27F302A06D0B84201DA011D6C
:1023400004DA012100910FE06D1EEFE7002802DCA6
:1023500086192D1A03E0411CA94200DD0D46801BA1
:10236000401C00900120C0070B902078000705D486
:102370000098A84202DB0020C0430090694600207C
:10238000C8720B98012102AF0337C907884225D0D4
:10239000022010902B2011900B9800280BDA40425D
:1023A0000B902D20119006E00B9800F0C7FF303104
:1023B0007F1E0B9039701099481E00291090F3DC95
:1023C0000B980028F0D111987F1E387020880005E6
:1023D00001D5452000E065207F1E387001A8C01B94
:1023E000C01D0B900F98002800D0012041190098C3
:1023F000C01709180B980818A169081A401EA06197
:102400002078C00602D42046FEF727FD0F9800284A
:1024100005D06268A1689047206A401C206220783D
:10242000C00625D52046FEF718FD21E0002E07DB6B
:102430000E98B04204DD03A86268805DA16802E0E6
:102440006268A16830209047206A761C401C206298
:102450000098401E002800900AD1FEF7A9FCC06831
:1024600062680168405CA1689047206A401C206255
:1024700028466D1E0028D9DC07E062683878A1681C
:102480007F1C9047206A401C20620B99481E00293F
:102490000B90F2DC2046FEF7F6FC032042E600003B
:1024A00001FCFFFF104D0000E1DFFFFFD21DF0B582
:1024B00004460D46D0088DB0C00046680768314616
:1024C000384603F09FFE0246F00F01D02D2307E0AF
:1024D0002068810701D52B2302E04007C00F43018C
:1024E0006846002B037001D0012000E00020032A81
:1024F0000A9001D0072A04DB2946204600F09CFF01
:102500002DE12078800601D40D2500E0E5697000FA
:10251000400D0D2D01904BDA300D00210B90084637
:102520000020C046032189050840002E05DA8200FC
:102530008018C20F1018401008408015012801DDD6
:102540000020C043A9000023182906D39C460A4650
:102550000123183A1B07D34003E001221205CA40A9
:1025600094460C31202902D33A46203900E0324605
:102570008A40002802DD002A06D119E0002817D180
:102580000121C9078A4213D3194663467F185E4169
:10259000002806D10120C007824202D108468743A5
:1025A0009E430B98310D814202D00198401C01904E
:1025B0002088000502D57149794402E06F497944C9
:1025C00019396B460A9830221A540A980A7C401C22
:1025D0001A54401C0A900198002801DC302000E0C9
:1025E00031201872019A0120002A02D0644BD218BF
:1025F00004E072003A4302D0614A521C0192002D5D
:1026000002DC2278120703D56A462E20507202207F
:102610000022864694460CE032033601120F6D1EEE
:102620008B5C02AA13546246521C401C9446052A35
:1026300001DA002DF0DC002202AE08E03B0F3F0182
:10264000CB5C521C6D1E3354401C082A01DA002D4D
:10265000F4DC23689A0601D511E0401E704504DDC4
:102660003218203AD27F302AF7D0002807DD3218FE
:10267000203AD27F2E2A02D11A0700D4401E002D04
:1026800003DD3E223254401C6D1E497C31540199B9
:10269000401C002906DA2D21471C31540198404284
:1026A000019003E02B21471C315401987D21C90082
:1026B000884206DBFDF748FF3030F0557F1C019162
:1026C00001E0642808DB01986421FDF73DFF30300C
:1026D000F0557F1C019101E00A2806DB01980A21D0
:1026E000FDF732FF3030F0557F1C01980A21FDF7CD
:1026F0002BFF3031F1550A98A1697F1C7A19101807
:10270000081AA0612078C00602D42046FEF7A5FB77
:10271000216A6E460A980818206204E062683078E0
:10272000A168761C90470A98401E0A90401CF5D17B
:102730002078C00602D52046FEF78FFB02AE09E0E6
:102740003078761C3E280DD06268A1689047206AD8
:10275000401C20627F1EF3D22046FEF794FB0DB092
:102760000320F0BD206A4019206203E06268A1687E
:10277000302090476D1EEDD3F8E70000B85B0000F5
:1027800001FCFFFF10B54369002B02D0C046C046D4
:1027900001E0FEF79BFB012010BD127801462431B9
:1027A0000A7000224A700122ECE711680022D2432D
:1027B000E8E710B54369002B02D0C046C04601E0EF
:1027C000FEF71EFC012010BD1288014624318284D0
:1027D0000022C2840122ECE711680022D243E8E71C
:1027E0003A2800D23038202302469A43412A01D3A6
:1027F00010463738884201D30020C043704700009C
:10280000F3B50C468FB000200C90012000260E90EE
:1028100008460C3003906269039801219047051E19
:102820002ED0252D2DD0216A8847002818D0626926
:10283000039801219047216A88470028F7D16269EF
:10284000411E0398904700E0761CA1690F988847C5
:10285000216A88470028F7D1E1690F988847DAE7AD
:10286000A1690F988847A842074601D1761CD2E794
:10287000E1690F9888477F1C02D10C98002877D017
:102880006BE16269039800273D46394690472A2844
:102890000CD16269039801219047012506E00A21C5
:1028A0004F433F18303FEBD4102005436269039833
:1028B00001219047014630390A2903D2AC498F42A1
:1028C000DEDCECE7E90600D4AA4F6C280AD04C28DD
:1028D00010D0682824D06A282ED074280CD07A28EA
:1028E0000AD00DE062690398012190476C2823D03B
:1028F00004211CE0202005436269039801219047D0
:10290000A760652865604FD026DC582839D01ADCCE
:10291000452849D012DC252834D04128B0D143E0E5
:102920006269039801219047682802D008210D436D
:10293000E6E70120C002DEE70220DCE7462833D0CC
:1029400047289DD130E05B2870D061282CD06328C7
:102950006CD0642894D161E06F284FD009DC6628E0
:1029600022D0672820D0692826D06E2817D12EE0E3
:10297000EFE070284DD073286FD075284ED078289E
:102980000DD154E0A1690F9888472528054600D14C
:102990006CE7E1690F9888476D1C00D16DE7DCE0BA
:1029A0000A224CE00A2252E0012023466A460F998F
:1029B000C04305F02DFAC5E04021284623460843D0
:1029C0006060A80701D5002239E000223FE0E80757
:1029D00000D020E72068011D21600068290501D58D
:1029E000067018E7290701D5068014E7A90703D563
:1029F000F117066041600EE706600CE740212846AB
:102A0000234608436060A80701D5082217E0082282
:102A10001DE0594928460840606016E040212846DC
:102A2000234608436060A807BCD5B9E715E04021FC
:102A3000284608436060A80707D5234610220120D6
:102A40000F99C043FEF7BAFC7CE010222346012018
:102A50000F99C043FEF757FD74E0002163280B4631
:102A60000191009102910D9102D05B2807D03BE0CB
:102A7000E80601D40120A0600120009034E0E06865
:102A800001210D906269039890475E2807D10120CB
:102A90000190E06801210D906269039890472169D7
:102AA000002906D10B4604AA8F00491C0829D351DE
:102AB000FADB002851D02169002926D00298401C59
:102AC000029062690398012190475D28F1D1019835
:102AD000002808D0002004AB8100401C5A58D24383
:102AE00008285A50F8DB04AB2069002820791CD054
:102AF0004007029A00980D9B0092224602901F48C0
:102B00000F991DD5FEF754FF1CE0C117C90E091817
:102B10004A114909930004AA9A184901411A1368F5
:102B20000120884003431360CBE740072246134847
:102B30000F9902D5FEF73AFE04E0FEF789FD01E0A9
:102B4000FEF7C3FE00280ADA401C06D10E980028C2
:102B500003D00020C04311B0F0BD0C98FBE7E9079B
:102B600002D10C99491C0C91361800200E9052E6A7
:102B7000CCCCCC0CFFFFFF7FF1F7FFFFFEFFFFFF88
:102B8000FFB58BB00878FF2806D0491C2D2805D04A
:102B900000230020009009E000200EE00123F8E768
:102BA000009A0A2462438018491C00900878FF2884
:102BB000F6D1002B02D000984042009000250395EA
:102BC0002C460D9800782D2801D02B2815D10D9971
:102BD000491C2D280D9102D0002003900DE001200A
:102BE000FBE7401C214600270A223B460D90284661
:102BF000FFF79AF935183C464C410D980678FF2EA0
:102C0000EFD1002108460020C0460399002902D0D8
:102C10008100401840080002860F012E01DD0026C9
:102C2000F6430E9900984718284620430BD0FF2002
:102C3000F530C7421ADA0398C1070B98002E41609D
:102C40000ADD012009E00398C1070B9841600B9948
:102C5000002008600FB0F0BD00200B990860FEF75F
:102C6000ABF802210160182108461AE0FF20F53078
:102C7000874219DD002E02DAFC48784401E0FC4866
:102C8000784406C80B9806C00B9803994068C9079A
:102C900008430B994860FEF78FF802210160142168
:102CA00008460020C046D5E7002108460020C0465F
:102CB00039000A9001D5724200E03246002900DA5C
:102CC000794207A800F0FCFB07AB07CB04AB07C3B6
:102CD000E848009000200146214304D12C460546D7
:102CE000E44920390091210C0904014306D1290C43
:102CF00024040C4300992D0410390091210E09067B
:102D0000014306D1290E24020C4300992D020839F3
:102D10000091210F0907014306D1290F24010C431B
:102D200000992D01091F0091A10F8907014306D1C8
:102D3000A90FA4000C430099AD00891E0091E10F7A
:102D4000C907084304D100986D196441401E0090E2
:102D5000002F0295019406DD32466846012304A93E
:102D600000F042FE05E001233246684604A900F067
:102D700090FE044603980D46002802D00120C007AB
:102D80004440002108460020C0460A99BA4E4840F7
:102D90000007800F07D160004008284303D060007F
:102DA000400DB04214D1FEF707F802210160600027
:102DB000400DB0420CD1B148784406C80B9806C00B
:102DC0000B98E10FC907406808430B99486041E739
:102DD0000B9844600B9805603CE7FFB51F4695B023
:102DE000002000250C909E685C68ED431390FDF771
:102DF000DFFFC0680168405C1490B96916986D1CCB
:102E000088470A90396A88470028F6D10A98401CFA
:102E10000AD00D20C0018443002E12DD0A982B2811
:102E200009D02D280DD103E00020C04319B0F0BD1A
:102E3000012080020443B96916986D1C8847761EEC
:102E40000A90600504A901D52D2000E02B206A46D8
:102E5000491C107410A8002E0D910B903BDD0A98B0
:102E6000692805D0492803D06E2801D04E281DD1ED
:102E70003B46039002200296179A1699C04300958C
:102E8000019404F0D5FFC11CD0D10FE0B9691698A8
:102E90006D1C88470A900120761E40020443179853
:102EA00005601398401C002E139014DD0A983028FA
:102EB000ECD0782801D058280DD1139801280AD1D8
:102EC0003B460296179A1699001F0095019404F04C
:102ED000A7FFC11CAAD114990A98884246D1802024
:102EE000044308E00C981799401E0C900120400202
:102EF0000443681C0860B9696D1C1698761E8847E3
:102F000030280A90EED031E01499884205D120068D
:102F100003D480200443761E1EE00A9803F078FA5A
:102F2000002826D0012008A9400204430D9803314F
:102F3000761E88420BD20A980D99303808700D9889
:102F4000401C0D90200607D50C98401E03E020067B
:102F500002D40C98401C0C90A00502D51799681C4F
:102F60000860B96916986D1C88470A90002ECBDC62
:102F700059E0002E57DD0A98652801D0452852D126
:102F8000A00550D50320B969000284436D1C169832
:102F9000761E8847002E0A900CDD2B2804D02D28A1
:102FA00008D1FF2001300443B96916986D1C884789
:102FB000761E0A90E00501D52D2100E02B210B980B
:102FC00001700B98401C0B90009025E0012012A985
:102FD000400204430B980131761E88420ED20A98B3
:102FE0000B9930380006000E087003D100990B9839
:102FF00088420AD90B98401C0B9006E0E00501D5E9
:103000001F4801E01E4840420C90B96916986D1C9B
:1030100088470A9017980560002E04DD0A9803F08F
:10302000F7F90028D2D1F969169888470D99FF2041
:1030300004AA08700B99087000200E900F900C9B4A
:1030400010A90EA8FFF79CFDA00502D40120C043E3
:10305000ECE62420044215D0E0071FD138680F9A0F
:103060000E99031D3B60006806C017E09A5B0000E4
:103070008C5B00003E400000FF070000545A000037
:10308000F1D8FFFF0EA9684603F00EF9E00705D15D
:103090003868009A011D3960006802602846C5E65C
:1030A00010B509E00488801C9C4205D1002A01D09B
:1030B000002010BD012010BD491EF3D2104610BDE6
:1030C000F8B505460C46C8680521C90488430121A6
:1030D00089050843E060800602D52046FDF7AAFC7A
:1030E0007149E0680140022903D02046FDF74CFCFD
:1030F000BCE00521012249030140D20391420FD1D6
:10310000C00306D56168E06A884200D8084660605E
:1031100006E02069E0626060606903F085F9A06103
:10312000A1680022EEB200290EDAE06883050BD414
:10313000C943A1600921226049030843E060606837
:10314000411C61600670ACE0E0680121490308435E
:10315000E060002020602069002831D1606903F020
:1031600066F9012527462437ED02002816D0A089EC
:103170008005800F08D0E069FDF7B4FA00282061CF
:1031800002D0E068284318E001202761E061E06890
:10319000032109028843012189020DE0E069FDF75E
:1031A000A1FA00282061EFD0E0682843E0608105A3
:1031B000890F03D1FF2101310843E060206960607D
:1031C000E2683A4F2569D0051FD56168E06A8842F8
:1031D00000D80846411B05D022462846FDF7DEFBF5
:1031E000002843D1E068010204D5E5620020656053
:1031F000A06053E0691CE1626160E169491E3843E7
:10320000A160E06030462E70F8BD100201D53A4052
:1032100009E06068411C61600670E06838430A2E6E
:10322000E06006D00022E16A6068814203D90B4663
:1032300002E00122F7E70346A7895B1B7F0504D460
:10324000E7699F4201DD002A1ED0814200D8014675
:103250000F1A0020E5626560002BA06009DD2246A0
:1032600019462846FDF79AFB002802D00020C043EB
:10327000F8BD002F08D0A069E5626560C01BA061A1
:10328000E06810210843E060E068000209D5616849
:10329000A069E562491B40186560A0610120C04338
:1032A000F8BD3046F8BD00008210000000000100AB
:1032B00010B50446C046C0462046FCF7D6FF10BDF8
:1032C00010B5002801D003F0ADF810BD10B50021F5
:1032D00002A000F085FC012010BD000053494741C9
:1032E0004252543A2041626E6F726D616C20746577
:1032F000726D696E6174696F6E00000010B50146F1
:1033000002A000F06DFC012010BD0000534947529F
:10331000545245443A2052656469726563743A2098
:1033200063616E2774206F70656E3A2000000000A4
:1033300010B500F06FFCFFF7C3FF10BD0146800819
:10334000081A02091018020A1018020C1018C008F6
:10335000820012185200891A01E0401C0A390A2919
:10336000FBD2704710B58820FDF7BCF9002801D0CA
:103370000021017010BD802904D8002802D00178F6
:10338000002901D0002070470121017008307047EA
:10339000002803D002460832914201D00020704735
:1033A0000021017070470000F8B5224C4E00069DC8
:1033B000A6420AD8A64201D1002806D15E00A64244
:1033C00003D8A6420AD1002A08D00D24240425429D
:1033D0002CD02946002000F051FCF8BD0C461C43BF
:1033E0000CD4994202D0EFF30080F8BD904202D095
:1033F000EFF30080F8BDEFF30080F8BD0924240747
:10340000E5008B4206D0EFF30080A043591A06D2A4
:10341000284304E0101A05D3EFF30080A04380F3A3
:103420000088F8BDEFF30080A043F1E7009500F0BD
:103430003DFCF8BD0000E0FFF8B51F46044601233F
:103440000068DB02032601461840072A05DB002836
:1034500001D017A506E017A504E0002801D016A5A5
:1034600000E016A5102081432160A069C01E002F36
:10347000A06101D0401EA0612046FDF7EEFC002FA8
:1034800009D038466268A1689047206A401C2062D3
:10349000C01C206206E0206AFAE762682878A1680A
:1034A0006D1C9047761EF8D22046FDF7ECFCF8BD67
:1034B0004E414E006E616E00494E4600696E6600D8
:1034C000F7B516468AB0334878446C4603467C33D9
:1034D000C06F5A689B680DC42E487844763003ACA0
:1034E0000DC80DC43720C001081837211B30FDF767
:1034F0002BF805460C46803D1B3C02D5644201205A
:1035000000E000200027099010E0E0070CD00C201C
:1035100020497843794432464C39411868460123A2
:1035200000F054FA6B4607C364107F1C002CECD1EA
:10353000184F7F442E3F16E0E80712D02001C01933
:103540000EC80691089307920068F04201D19819BD
:1035500008903246012306A903A800F037FA03AB0E
:1035600007C36D10641C002DE6D10998002806D011
:1035700032466946012303A800F07EFA05E00123E4
:103580003246694603A800F021FA0A9B07C30DB032
:10359000F0BD0000BC4C0000034640000A4610B5D8
:1035A000400D0BD00121C9070F24A40200191C03F0
:1035B00064082143540D2143D20207E00021012079
:1035C000F2E7D40F490021435200401E0029F8DAE7
:1035D000DB0FDB07184310BDFFB50D46144685B061
:1035E0004868516802F0E9FD00910190A868A1685F
:1035F00002F0E3FD02910390A868616802F0DDFD2E
:10360000029A12188242029201D2012000E00020A8
:10361000019A0B18D2180028019202D08A4202D9CE
:1036200003E08A4201D2012000E00020009908183E
:1036300000906868A16802F0C0FD029A12188242E8
:10364000029201D2012000E00020019A0B18D2184A
:103650000028019202D08A4202D903E08A4201D2B4
:10366000012000E0002000990818009028682168D7
:1036700040004900400849084018FA49471814E03A
:1036800001994000C90F0843009001980299400039
:10369000C90F08430190029803994000C90F0843DD
:1036A0000290039840007F1E039000980028E7DAFC
:1036B0000898002801D0EC4E00E00026B74201DA5D
:1036C000012000E00020002804902AD0F71BF80613
:1036D000C00E15D0029B2021091A039A8B401A4371
:1036E0000392029A019BC2408B401A430292019AB4
:1036F000009BC2408B4000991A430192C140009147
:103700007B110DD06F460320C11A03D50021820022
:10371000B95003E08A008100BA587A50401EF3D5B0
:10372000374603980299002800D0012001430898E9
:103730000291002808460CD0002800D001200199F1
:10374000019A490508430121D20AC902D202019215
:1037500000E001210E9B0122D207012B02D0002B99
:1037600003D013E0002807D120E0904204D8904213
:103770000CD1019B0B4209D0019B5918019105D135
:103780000099491C009101D17F1C009200280DD0A6
:10379000102108460020C0460498002806D00F9843
:1037A000002803D0082108460020C0462868216868
:1037B000019B009A4840C10F0598C90739430EC0C4
:1037C00009B0F0BDFFB587B0099A08980899536809
:1037D000926840688968964600220393174694468B
:1037E000089A12685300099A5B081268520052083E
:1037F0009A1A9E4BD4180A9A002A01D0352200E06A
:10380000402206920022012315460492DB0705930D
:1038100024E0002D05D175460346039E4D1BB341A0
:1038200009D375466646039B491B049D9841059B39
:103830007519AC465F4163463B4308D0059B049E27
:10384000DD0776082E435B080496059301E0521EBF
:10385000641EC50FED0749184041521C069B9A4251
:10386000D7DB002D04D17546039A6B1A824101D231
:1038700003200CE0039A0B466B404240134303D0F5
:10388000014303D0012002E0022000E00020614655
:1038900001910021009702910A99002905D0614603
:1038A00040020143704B019102E080070023029027
:1038B0009C4201DA012000E0002007003AD01A1BE8
:1038C000D006C00E15D0029D2021019C091AC540CA
:1038D0008C402543029C8C4000D001242543019C50
:1038E0000295009DC4408D4000992C430194C14035
:1038F000009154111DD06D460221002202290CD1E5
:103900000320001B07E0002804DB8600AE59002ED0
:1039100000D00122401C0328F5DB081B02D58800DB
:103920002A5004E08000285810438A00A850491EFD
:10393000E3D51C460A98002802980CD0002800D035
:1039400001200199019A490508430121D20AC902BF
:10395000D202019200E00121109B0122D207012B2B
:1039600002D0002B03D013E0002807D11FE09042C3
:1039700004D890420CD1019B0B4209D0019B5918ED
:10398000019105D10099491C009101D1641C00925C
:1039900000280CD0102108460020C046002F06D079
:1039A0001198002803D0082108460020C046089836
:1039B0000999019A009B006809684840C10F07985F
:1039C000C907214382600AC00BB0F0BD00B585B0C5
:1039D000019300920A460146002302A8FFF7FCFD6E
:1039E00002A807C805B000BDFFB50A461F4685B04E
:1039F0000799019301230091014602A8FFF7ECFD0E
:103A000002990398049ECA0F4900D20700920F2220
:103A1000490892028C1A0021002800DB0C46450060
:103A200013486D08844214D3079A002A04DA441E0E
:103A30000026104DF64302E004460D460E461021C6
:103A400008460020C046002F03D00421084600206D
:103A5000C0462005E90A0843009908436905F20AAF
:103A60001143ADE602C0FFFF013C0000FF3F000034
:103A7000FF070000FFFFFF7F00B585B001930092B4
:103A80000A460146002302A8FFF79CFE02A807C8C9
:103A9000A8E7FFB50A461F4685B0079901930123A1
:103AA0000091014602A8FFF78DFE02990398049E3B
:103AB000CA0F4900D20700920F22490892028C1ABD
:103AC0000021002800DB0C46450011486D088442A7
:103AD00014D3079A002A04DA441E00260D4DF6433B
:103AE00002E004460D460E46102108460020C0465E
:103AF000002F03D0042108460020C0462005E90A13
:103B00000843009908436905F20A114358E600008A
:103B1000FF070000FFFFFF7FFFB51C4683B0059D38
:103B200000904D43002923D0A768002041E0002FDA
:103B300041DCE069A8421EDA019900291BD0224627
:103B400029460098FCF72AFF002801D0A7602DE045
:103B5000E0684105890F01D0002008E02269616812
:103B6000891AE269511AC003A16001D44842A060D9
:103B7000059807B0F0BDA84204DAE0680121C90544
:103B80000843E060214600980078FFF799FAE26860
:103B90000121C9058A43411CE26007D0A7680028BB
:103BA00006DB0098401C6D1E009015E00020E0E749
:103BB0000120019010E0AF423E4600DD2E46324625
:103BC00060680099FCF70AFC6068BF1B80196060A0
:103BD00000988019AD1B0090002DA8DCA760C7E7F6
:103BE00070B505460C460A2000E06D1C02F03FFC53
:103BF000002D06D028780028F7D102E0641C02F0DE
:103C000036FC002C02D020780028F7D10A2002F0E0
:103C10002EFC70BD10B5012805D0002103A0FFF7D0
:103C2000DFFF012010BD09A1F8E70000534947520A
:103C3000544D454D3A204F7574206F66206865617C
:103C400070206D656D6F7279000000003A20486544
:103C50006170206D656D6F727920636F727275701F
:103C600074656400F8B516461F460C46851B02E0D5
:103C70002846B847AD1B641EFAD2F8BDC80212D55B
:103C80004803400F002804D0C803C04301218840E6
:103C90007047EFF300800001000903210907084382
:103CA00080F30088704700207047000010B50020A6
:103CB0000249029A00F086FA10BD00000000F87F69
:103CC00010B5FDF779F8006810BD10B50446FDF792
:103CD00073F8046010BD0000FFB51F4689B013984B
:103CE00012994005C00FC0070590002007900546B7
:103CF0000446461E049002903C20491C12910690F6
:103D0000B9690A98884703901498401E1490149833
:103D1000002841DD03982E2816D01021FEF760FD03
:103D2000002834DB01210491079901431AD0069938
:103D300000290CDB069AC11700F073FA05430698B8
:103D40000C43001F069006E0012002900EE00028C0
:103D500001D001200543012007900298002805D1D9
:103D6000361D03E00298002800D0361F1298401C30
:103D70001290B9690A98884703901498401E1490CD
:103D800004980028C3D00B9912980860BFE70398E5
:103D9000702808D0502806D0F9690A9888470498F6
:103DA000002815D051E000200390012002900498D3
:103DB00000280AD01298401C1290B9690A988847C6
:103DC0001499491E0029149106DCF9690A9888475C
:103DD0000120C0430DB0F0BD2B2804D02D280DD1FB
:103DE0000020C04302901298401C1290B9690A98B2
:103DF00088471499491E00291491E6DD411CE4D03E
:103E00000A21FEF7EDFC0028DFDB03990A2251436B
:103E1000081803901298401C1290B9690A988847B4
:103E20000A21FEF7DDFC14990B9A491E1491129990
:103E300011601499002901DD0028E6DAF9690A9871
:103E4000884702990398484386191398242108400B
:103E500004902846204304D0A10F8907090002D00E
:103E600006E005989BE0A90FA4000C43AD00B61E28
:103E7000E10FC907080002D16D196441761E04984C
:103E8000002803D00B2002905D4803E02820029018
:103E90007D20C0438642039007DA811B02980818F0
:103EA0004128029001DD41200290029A0120002168
:103EB000521E00F0B6F9024628400B462140084346
:103EC00001D0012000E0002007900020521EC043D6
:103ED00043412A4023401A4301D0012000E0002042
:103EE00007990690014352D0002108460020C046A1
:103EF0000321059A89050840002A05D08200801810
:103F0000C20F1018401008408015012802DD002063
:103F1000C04301E0012815D0401C38D00798002884
:103F200035D0069800280DD1029A0120002100F01A
:103F300078F928402140084301D0012000E000200A
:103F4000002824D0029A0120002100F06AF90346DB
:103F500040198C4661412A1A8C410FD3029840289F
:103F600007DD0498039E002801D0343E02E0173E8E
:103F700000E0761C01240025E40708E05B1E624691
:103F80000024E4436241DD43D44305400C400398E0
:103F90000121081AB04206DA1A490598084301902F
:103FA000002000900EE060006205010BE80A10435B
:103FB000059A009068460A4313490A433146019224
:103FC00002F01CFA049800280AD01398C00714D1F4
:103FD0003868019A0099031D3B60006806C00CE038
:103FE00002A8694602F060F91398C00705D1386845
:103FF000029A011D3960006802601298EAE600002A
:1040000002FCFFFF0000F07F0000F03FFFB51D46FF
:1040100087B01198484A109C129E40051399C00F12
:10402000761EC0070243019200220092FF22D205B1
:104030001043202291434929059003D017464E2969
:1040400028D04FE03DA002AA0BC801270BC2A969E6
:104050000898641C8847761E014607D402A8C05DF4
:10406000002803D02022914381420AD0E9690898B0
:104070008847032F36D0082F34D00120C0430BB01F
:10408000F0BD7F1C032F01D0082FE0D10999601CDF
:104090000860DCE7A9690898641C8847761E2DD45F
:1040A000B84341282AD1A9690898641C8847761E1C
:1040B00024D4B8434E2821D1A9690898641C8847A4
:1040C00001990122D204114301910599D2001143B3
:1040D00005910999761E0C6001D4282806D0E9695B
:1040E000089888471198C00712D023E0A96908985A
:1040F000641C8847761E01D4002803DAE969089811
:104100008847BAE72928F1D10998641C0460E9E7D7
:1041100011982421084207D02868019A0099031DAC
:104120002B60006806C005E028680599021D2A601A
:10413000006801602046A2E70000F07F494E464932
:104140004E495459000000000246C80FC007814381
:104150004B0030B54B405B009B0D20D01923DB0694
:10416000C91801231B05994220DB0324A407042559
:104170001346AB400BD3002B04D1EB0613409B003E
:10418000E34204D401246407002312195941FF2398
:104190001B0599420BD2C9000143500F09E0CB0225
:1041A00004D501430803024305D0054830BDFF2173
:1041B000C905084330BD084607210905884330BDBD
:1041C0000000C07F10B50C461107090F092904D063
:1041D0000A290AD008290CD104E011460820FFF76B
:1041E0004DFD06E0510606D501E0510601D501203E
:1041F000C007214610BDD10607D501010909CC0829
:104200004907000E0006044309E0410F2002490758
:10421000000A0143200E00061D22D1410143084639
:10422000E7E710B5202A04DB0146203A9140002040
:1042300010BD914020239C1A0346E340194390404F
:1042400010BD000070B505464800440D124B00201B
:10425000002C0AD0634008D09A4206DA6642B24285
:1042600003DD12054019514170BD002C08D0002B10
:1042700009D0C90FC907002AF6DB084A114370BDEF
:10428000C90FC90770BD28460A03104302D0002099
:10429000034970BD284670BDFF0700000000F07F95
:1042A0000000F87F38B504466846C046C04601465F
:1042B000204602F093FE38BD704700BFFEE7F0B520
:1042C00002460B46002661E00124B44019682140F3
:1042D00000295AD0586814680D464D436F00ED19F7
:1042E000AC430D464D4345432C43146000BF586812
:1042F000012802D0586802280DD1986894680D46AC
:104300004D436F00ED19AC430D464D4345432C43DF
:10431000946000BF00BF1869D4680D464D436F001C
:10432000ED19AC430D464D4345432C43D46000BFCB
:104330005868022829D1FF2911D85869146A0D46F6
:104340004D434D434D432F017D1BAC430D464D4323
:104350004D434D4345432C43146200BF15E05F6954
:10436000080A40430C0A60430C0A60430401241A03
:10437000506AA0430C0A64430D0A6C430D0A6C4357
:104380007C432043506200BF00BF761C1868F04099
:10439000002899D15868012802D05868022809D10C
:1043A000DC68186855688543074667433D43556098
:1043B00000BF00BF0020F0BD70B504467D25ED00B4
:1043C00029462046FCF7B6F8401E04494861002003
:1043D00088610520086100BF70BD000000E000E0BA
:1043E00010B5044600F08CFA2060206800F05CFAFA
:1043F0006060606800F06AFAA06010BDF8B504461D
:104400000025002C28D1204600F0EEFA002817D015
:10441000012804D002280CD0032812D103E000F0B8
:104420006FFA054617E000F01FF9002800D0234D71
:1044300011E000F021F9002801D00125ED030AE088
:1044400000BF00F05DFA074600F02EFA064600F0C5
:104450003DFA054600BF00BF102C2CD1204600F0CD
:10446000C3FA0F2109074018002818D02103401A69
:1044700004D0401A0CD0401A12D103E000F040FAE8
:10448000054617E000F0F0F8002800D00B4D11E0D1
:1044900000F0F2F8002801D00125ED030AE000BF8A
:1044A00000F02EFA074600F0FFF9064600F00EFA7B
:1044B000054600BF00BF2846F8BD000000127A0084
:1044C000014908607047000004000020F0B589B081
:1044D00004460D460120089000200790204600F079
:1044E000D3F800286AD1E968686808432969084355
:1044F000A96908432168334A114008432060A8682D
:1045000061680322120391430143616000BF68693F
:10451000A168121191430143A16000BF2A4884425F
:1045200004D10020FFF76AFF079018E02748844273
:1045300004D11020FFF762FF079010E02448844266
:1045400005D104A8FFF74CFF0698079007E0214823
:10455000844204D104A8FFF743FF06980790079808
:1045600000282BD02868002828D000200890079F1A
:10457000A86903902E680121C9030398884214D1C9
:104580007900720888183146FBF7D4FF80B2029098
:10459000114902980840019002980007400F0199C4
:1045A000084301900198E06006E07108C81931469F
:1045B000FBF7C0FF80B2E06000BF00BF089809B001
:1045C000F0BD0000F369FFEF0038014000440040F7
:1045D00000480040004C0040F0FF000008B50949C9
:1045E00009690091411C002900D0401C07E00549E1
:1045F0000969012212041140002900D0401E002840
:10460000F5D108BD00E000E0704770477047704783
:104610007047000000BF0549C96980221140002988
:10462000F9D0024920310881704700000044004061
:1046300010B50120800500F083F90120000500F08D
:104640007FF907480068012189050843044908608B
:10465000044800680121890408430249086010BD2C
:10466000000C004800080048024800680221084089
:1046700040087047001002400248006A02210840CA
:10468000400870470010024001460868C007C00F8C
:10469000012250405040704710B501204C49096834
:1046A000814301434A4A116000BF00BF10460068C1
:1046B000C007C00F002801D1FFF7FEFD00BF45482D
:1046C0000068012108434349086000BF00BF00BFE4
:1046D000404800680221084040080028F7D0102018
:1046E0003C490968F8229143C2001143394A1160DC
:1046F00000BFC00241010022364B5B687B24E4030B
:10470000A34304460C432343324C63602346DB6AD5
:104710001B091B011343E36200BF00BF2046006872
:10472000090108432146086000BF00BF00BF2948B7
:104730000068012149060840400E0028F6D00020FC
:1047400024494968F02291430143224A516000BF45
:1047500000BF1146496807221202914301431D4AD6
:10476000516000BF02201146496889088900014351
:10477000516000BF00BF00BF164840680C210840D0
:104780000828F8D11448FFF717FE0420042806D1A2
:104790001249096904221143104A116105E00F49C9
:1047A0000969042291430D4A116100BF0A48FFF7CD
:1047B00087FE012000070749096B030E03229A4078
:1047C00091430202120A1143024A116300BF10BD55
:1047D0000020024000100240006CDC0200E000E01B
:1047E00000B58DB01C2106A8FBF7A2FE1821684673
:1047F000FBF79EFE0120400400F0B0F80120000508
:1048000000F09EF8202000900220019003200290EA
:10481000002003900490059069462148FFF74FFD62
:10482000402000900220019003200290002003907D
:104830000490059069461A48FFF741FDE1204002C7
:10484000069000200790089009900C200A90002004
:104850000B900C9006A91348FFF738FE00BF1148D3
:1048600080680121890288430E49886000BF00BF2B
:10487000084640680921C90288430A494860084639
:1048800080682A2188430749886000BF00BF084626
:104890000068012108430349086000BF0DB000BD56
:1048A000000C004800440040014600BF0548406835
:1048B000F022104010400009034A125C0846D04024
:1048C0007047000000100240547E0008014600BFFF
:1048D00005484068072212021040000A034A125C91
:1048E0000846D0407047000000100240647E000877
:1048F000024840680C210840704700000010024048
:1049000010B50024FFF7F4FF002806D0042806D0D5
:10491000082806D00C280AD107E0074C09E0064C0D
:1049200007E000F029F8044603E0044C01E0024CE3
:1049300000BF00BF204610BD00127A00006CDC02F0
:1049400008B5054949690143034A5161114649695E
:104950000140009108BD00000010024008B5054963
:10496000C9690143034AD1611146C96901400091F7
:1049700008BD00000010024070B50024002500BFF3
:10498000164840680321C903084005460120C003BA
:10499000281A06D00121C903401A06D0401A06D1B0
:1049A00001E00F4C05E00F4C03E00D4C01E00C4C16
:1049B00000BF00BF00BF0948C06A0007000F461CC7
:1049C00031462046FBF7B6FD044949680F229204A0
:1049D00011401140890C891C484370BD00100240F1
:1049E00000127A00006CDC0201460448006B0322CE
:1049F0008A4010400A061043704700000010024031
:104A00001FB51C4600F0BCFA04494968204604B0B2
:104A100010BDC046C046C046C046F7E7680000204B
:104A200013B50024012001F063FB0446204601F089
:104A300057FB0020C0431CBDC046C046C046C04610
:104A4000F4E7000001290CD10D4A92694B021A4388
:104A50000B4B9A610B4A9269CB021A43094B9A613C
:104A60000DE0074A926A01235B021A43044B9A62E3
:104A7000044A926A0123DB021A43024B9A6270478E
:104A800000080048000C004810B50446FFF7D0FDB0
:104A9000FFF7A6FE10BD000070B5044606A10C4845
:104AA000006803F00DF905460A4902F02BF90AA047
:104AB000FBF71AFC204670BD68656C6C6F2074684B
:104AC00069732069732061207465737400000000AD
:104AD0002C000020557C000868656C6C6F207468A1
:104AE0006973206973206120746573740D0A000076
:104AF000FFB581B01F460D00064601D00C4600E010
:104B00004024002E03D1204601F0EEFA06463B4633
:104B10002146039AFBF748FE002802DA0020307095
:104B20000FE0844201DA441C02E0844209D16400AF
:104B3000002D02D0002005B0F0BD304601F0CCFAC7
:104B4000E1E73046F7E70000FFB5494D0027286848
:104B500089B0002858D147A00020C046040001D1E8
:104B60002C460C3420463A21FCF7AEF800280DD034
:104B70003F4A0770121D42A1401CFBF745FE012869
:104B800002D16868002801DC012068603D491420DA
:104B900005910846C04606001BD0B760F7600120AB
:104BA00040027060384837463060103708A8C04669
:104BB000C0460246354904A802F0F4F901463846D9
:104BC00002F014FA0646103E04A802F02DFA30480E
:104BD00030602C4E07A8C046C046024621466846B3
:104BE00002F0E0F9074601A800F072FF02463068C3
:104BF0003946C36830469847A86001A800F07AFF9C
:104C0000684602F011FA2C60AC68601C28D002A83B
:104C100004906F681B4E06A80B9DC046C046024616
:104C200016A103A802F0BEF90095019030683B463A
:104C30000569224631460498A84703A802F0F4F912
:104C4000029A10460C38806800280BD00C9B0A99F9
:104C50000998FFF74DFF044602A802F0E5F9204647
:104C60000DB0F0BD02A802F0DFF90020F8E7000067
:104C70004C0000205257535444455252000000004B
:104C800025640000B01E0020248200087A850008F8
:104C9000288500080FB47FB5154D2A68002A04D076
:104CA0000898032805DC002190477FBC08BC04B0AD
:104CB000184709AE694608200846C046002803D0B8
:104CC00000F0F4FC044600E0002432462046089937
:104CD00000F0A8FC206881682046884701462A68C1
:104CE000089890472068016820468847DDE7000063
:104CF000640000200749884201D10420704706491A
:104D0000884202D00549884201D1082070470C2012
:104D10007047000080000020D400002028010020FF
:104D200010B504460068FBF793FD002802D0002070
:104D3000C04310BD2068FBF705FE10BD70B51C46D2
:104D400015460E460368224629463046FEF7E4FE25
:104D5000A04201D1012070BD002070BD13B5002418
:104D600001F0C6F90446002C02D10320FFF792FFA0
:104D700020461CBDC046C046C046C046F3E710B53D
:104D800001F0AEF910BD7047FFB50746002087B0AF
:104D90003D46386008357860141E064608D0344811
:104DA000844201D9C046C046A00001F09DF900E050
:104DB000002011C5083D05E02046641E80002968DA
:104DC000001F0E50002CF7D10020A860E860286179
:104DD0000A9868612C460898083C00280AD0FBF71E
:104DE000DBFA401C054601F07FF92A460899FBF7DB
:104DF00087FFA061062705A8C046C046014602A855
:104E000002F0ECF8049039461A4B1B4A042001F0DA
:104E100018FA01906568062D00D33D46266800907B
:104E2000A800039007E03146009802F02BF90098A3
:104E3000001D361D0090216803980818B042F2D179
:104E400006E0A90001986D1C0818049902F01AF9EF
:104E5000BD42F6D307492068FBF72EFC6760019836
:104E6000206002A802F0E0F820460BB0F0BD000080
:104E7000FFFFFF3F29700008A542000810B5044657
:104E8000806901F029F92046083001F0F1FC08386A
:104E900001F000FD10BDF8B504460D46164610465B
:104EA00000212260FBF7ACFE6060002809D0FBF710
:104EB00073FA401C01F018F907466168FBF7DEFE43
:104EC000676029463046FBF79BFE2046F8BD10B5CB
:104ED00041680446002905D02068FBF791FE606810
:104EE00001F0FAF8204610BD0C0008D00A460DA1CA
:104EF0001048FBF74EFC204601F0EEF80AE00028CF
:104F00000AD001280AD002280AD00BA205A109481C
:104F1000FBF73FFCFBF787FE09A2F7E70BA2F5E7DB
:104F200010A2F3E7457863657074696F6E3A2025C7
:104F3000732E0A0028010020756E6B6E6F776E204D
:104F4000657863657074696F6E000000756E6578D2
:104F500070656374656420657863657074696F6EED
:104F6000000000006261645F616C6C6F633A206FE7
:104F70007574206F66206D656D6F7279000000009A
:104F800010B50B49044600200B684A6800E0401C3D
:104F9000824206D9810059180968002901D0A1422E
:104FA000F5D1810059180968002900D1104610BDBB
:104FB000680000200068002800D001207047000031
:104FC000014608688038406F4018044A5268904291
:104FD00001D1012070470020FCE70000901E002056
:104FE00010B504462046FFF7EBFF002815D12046F8
:104FF00001688039496F09180A4A9268914201D1C3
:10500000012100E00021002907D120688038406F8D
:1050100000190449C968884201D1012010BD00204F
:10502000FCE70000901E002040687047FEB50D466A
:10503000174600240168E44306226846FFF72BFF69
:1050400021462868FFF7ECFC0646401C12D001F010
:1050500023F8416805460468C8002018A0420ED114
:105060002846491C01F024FC03CDC9004418083C23
:10507000083D09E06846FFF72AFF2046FEBD22688A
:10508000521C01D00834E9E73946201D266000F0A3
:1050900043FD2868201AC410ECE710B50C4600F058
:1050A000FBFF4168A14204DD0068E1004018001DDB
:1050B00010BD00F0D1FC10BDF8B51C4615460E46DB
:1050C00000F0EAFF4168B1420FDD0068F1004018CE
:1050D0000068411C09D0002100916B4622462946F8
:1050E000FFF78EFC6946884200D10020F8BD406978
:1050F0005200805A084000D001207047084670478F
:1051000008467047F8B5056804460868EF68069ECB
:10511000874204D9AD6880002818006800E00020AC
:10512000002803D12046009600F002F8F8BD0000E8
:10513000FFB5064600681D46416981B0294201D08D
:10514000002406E001693948294201D0C46800E022
:105150008468002C12D002980768E068B84207D82B
:105160000020009020466A46791C083001F056FB6A
:10517000A068B90040180768002F4FD10398002895
:1051800002D10420FFF786FD002C12D00298076898
:10519000E068B84207D80020009020466A46791C93
:1051A000083001F03BFBA068B90040180768002FE9
:1051B00034D13268002350691DA128420FD0022348
:1051C000102100200D4204D01168800008180168E9
:1051D00009E04900401C0628F4D3164903E0106991
:1051E000284200D0012318460A9B00229847074610
:1051F000002C13D03068A04210D02146684600F041
:105200004FFC39466846029A00F016F800200090DC
:10521000E069401EE061684600F06CFC39463046AB
:10522000029A00F009F8384605B0F0BD30000020C1
:105230000000000077850008F8B50546087A164694
:105240000C46C00710D13068002804D119490868FD
:10525000401C0860306020682946826820469047DC
:10526000A06801210843A06028683668C068B04281
:1052700007D80020009028686A46711C083001F0A9
:10528000CDFA28683146083001F0F9FA00680028A4
:1052900006D0C168491EC16002D1016849688847CB
:1052A000E0683146401CE0602868083001F0E7FA09
:1052B0000460F8BD700000207CB5054608680C4607
:1052C0008069002809D06846C046C046024620686A
:1052D0008169284601F066FE7CBD01A8C046C04633
:1052E000024601A1F5E700002A00000000980260D4
:1052F000032070470120704710B50168C9698847CD
:1053000010BD01207047F0B585B00AACF0CC039712
:105310006F4670C70468E468A04705B0F0BD009907
:10532000039B01980A6018600320704710B501685C
:105330008969884710BD0120704710B501688969E7
:10534000884710BD00207047F0B585B00AACF0CC9E
:1053500003976F4670C70468E468A04705B0F0BDC6
:1053600030B503A932C906980A60046007E02478C2
:1053700014700A68921C0A600268521C02600C6871
:105380009C4202D00268AA42F1D1002030BD10B583
:105390000168C969884710BD00680968884201D161
:1053A000012070470020704710B50446FBF716F83F
:1053B000204610BD10B50446FBF774F8204610BD1A
:1053C00038B504460020C043009021466846FFF7E8
:1053D000E3FF002801D0002038BD206838BD0068F8
:1053E0000968884201D1012070470020704710B53C
:1053F0000446FBF774FC204610BD38B50446002077
:10540000C043009021466846FFF7E9FF002801D01D
:10541000002038BD206838BDFEB504462CA1FBF73E
:1054200075FC002850D02BA12046FBF76FFC00280C
:105430004AD00120400200F057FE074602222146D2
:105440006846FFF728FD002410264025FBF73AF9AF
:10545000034618680021005DC207D20F00D0012169
:105460003E22104201D002221143284201D00422E0
:105470001143304201D0082211430822104200D0CB
:1054800031439822104201D02022114320281DD000
:105490000022002A00D029430222104201D080229B
:1054A0001143820042408020024201D0400001436B
:1054B00060003952FF200130641C8442C9D1684623
:1054C000FFF705FD3846FEBD0448FEBD0122E0E7BA
:1054D00043000000504F5349580000006C7E000804
:1054E000FEB5064615460C460846FFF795FF0146F1
:1054F0002B460022304600F097F9434901600646EA
:105500004069424988427CD00120307602222146FF
:105510006846FFF7C0FC0024FF25E2B210213046A8
:10552000FFF7E5FD002808D10AE0EAB21021304675
:10553000FFF7DDFD002806D16D1EA542F5D802E07B
:10554000641CAC42E9D33562F461F76A1AE0204684
:105550006138192812D8E2B210213046FFF7C7FD92
:1055600000280BD020462038C2B2029008213046D5
:10557000FFF7BDFD002801D0029800E020463870FA
:10558000641C7F1CAC42E2D90024FF25E2B2082152
:105590003046FFF7ACFD002808D10AE0EAB2082146
:1055A0003046FFF7A4FD002806D16D1EA542F5D8B0
:1055B00002E0641CAC42E9D3B5627462376B1BE055
:1055C00020464138192813D8E2B208213046FFF7A7
:1055D0008EFD00280CD020462030C2B2029010214F
:1055E0003046FFF784FD002802D0029801E008E071
:1055F00020463870641C7F1CAC42E1D96846FFF736
:1056000066FC3046FEBD0000988200086C7E0008F3
:1056100010B500F003F800F063FD10BD10B500F008
:105620009BF910BDF7B51746002413460D460646F4
:105630000A4621462046FFF787FA04000DD1002DC7
:1056400001DB172D00D300251749A8000A580021B7
:105650003B460846FFF74CFA04467068002817D00E
:10566000FAF79AFE05462046FAF796FE2818401CDF
:1056700000F03AFD7168FBF701FB2146FBF734FBB4
:105680000546706800F028FD204600F025FD2C46F8
:1056900074603046FEBDC046C046204600F01CFD8A
:1056A000C046C046F5E70000C480000810B500F011
:1056B000EDFC024901600021416010BDAC8300088F
:1056C00010B5044604482060606800F005FD2046DF
:1056D000C046C04610BD0000AC83000810B501F004
:1056E000A3FC10BD10B504460020C043206000F0AC
:1056F000B3F90146201D00F0E5F9001F10BD10B5FB
:10570000001D00F0F7F9001F10BD10B5044601C9D7
:105710002060201D00F000FA204610BDF0B585B0D5
:10572000064602A8FFF7C8FD022268460299FFF765
:10573000B2FB02A801F078FC0024FF25E2B21021A0
:105740003046FFF7D4FC002808D10AE0EAB2102165
:105750003046FFF7CCFC002806D16D1EA542F5D8D7
:1057600002E0641CAC42E9D33562F461F76A1AE0E6
:1057700020466138192812D8E2B210213046FFF7CE
:10578000B6FC00280BD020462038C2B20390082176
:105790003046FFF7ACFC002801D0039800E020461B
:1057A0003870641C7F1CAC42E2D90024FF25E2B2B1
:1057B00008213046FFF79BFC002808D10AE0EAB236
:1057C00008213046FFF793FC002806D16D1EA54244
:1057D000F5D802E0641CAC42E9D3B5627462376B61
:1057E0001AE020464138192812D8E2B20821304682
:1057F000FFF77DFC00280BD020462030C2B203907A
:1058000010213046FFF773FC002801D0039800E018
:1058100020463870641C7F1CAC42E2D96846FFF712
:1058200056FB05B0F0BD0000F8B5044620206060CE
:105830000020E360A060434B236061612276002971
:1058400002D14149616120760025FF26EAB210218C
:105850002046FFF74CFC002808D10AE0F2B21021E4
:105860002046FFF744FC002806D1761EAE42F5D84C
:1058700002E06D1CB542E9D3701B2662401CE56155
:1058800000F032FC0746E0621AE028466138192829
:1058900012D8EAB210212046FFF729FC00280BD0CD
:1058A00028462038C2B2009008212046FFF71FFC8E
:1058B000002801D0009800E0284638706D1C7F1C3D
:1058C000B542E2D90025FF26EAB208212046FFF7BB
:1058D0000EFC002808D10AE0F2B208212046FFF7AA
:1058E00006FC002806D1761EAE42F5D802E06D1CFB
:1058F000B542E9D3701BA662401C656200F0F4FB60
:10590000074620631AE028464138192812D8EAB21F
:1059100008212046FFF7EBFB00280BD0284620305B
:10592000C2B2009010212046FFF7E1FB002801D011
:10593000009800E0284638706D1C7F1CB542E2D903
:105940002046F8BD408400086C7E000810B500F0C9
:1059500003F800F0C5FB10BD10B5044608482060F0
:10596000207E002802D0606900F0B6FBE06A00F0FB
:10597000B3FB206B00F0B0FB2046C046C04610BD14
:105980004084000810B5202200F012F800220274B2
:105990000149016010BD00007484000810B500F0DA
:1059A00003F800F09DFB10BD10B5C046C04610BD09
:1059B000426000228260C1600149016070470000BE
:1059C0002482000810B5C046C04600F089FB10BD17
:1059D00070B51E4E3069002828D1202000F088FBC9
:1059E000044602230A221AA1FFF7CEF9002510244B
:1059F000B06009E02946B06800F056FFB1688969D7
:105A000001F018FB64006D1CA005800EF2D120206F
:105A100000F06EFB044601230A220EA1FFF7B4F941
:105A20003F210901F0600161B068306170BDC0467E
:105A3000C046B068002803D0FFF720FA00F050FB02
:105A400000203061B060C046C04670BD300000200C
:105A5000430000000000000010B50E4C2069002833
:105A600001D1FFF7B5FF2078C00710D1094800F039
:105A7000F2FB00280BD00748A168001D00F010F8C9
:105A8000054A0649FAF772FC0248C046C04601487A
:105A9000001D10BD3000002000000008F55A00086D
:105AA00010B50446016006480069002801D1FFF7DF
:105AB0008FFF2168C869401CC861204610BD0000E6
:105AC0003000002009680160CA69521CCA61704731
:105AD00070B5074C05462068002801D1FFF778FF14
